{
  "contractName": "Election",
  "abi": [
    {
      "inputs": [],
      "payable": false,
      "stateMutability": "nonpayable",
      "type": "constructor"
    },
    {
      "constant": true,
      "inputs": [],
      "name": "admin",
      "outputs": [
        {
          "internalType": "address",
          "name": "",
          "type": "address"
        }
      ],
      "payable": false,
      "stateMutability": "view",
      "type": "function"
    },
    {
      "constant": true,
      "inputs": [
        {
          "internalType": "uint256",
          "name": "",
          "type": "uint256"
        }
      ],
      "name": "candidateDetails",
      "outputs": [
        {
          "internalType": "uint256",
          "name": "candidateId",
          "type": "uint256"
        },
        {
          "internalType": "string",
          "name": "header",
          "type": "string"
        },
        {
          "internalType": "string",
          "name": "slogan",
          "type": "string"
        },
        {
          "internalType": "uint256",
          "name": "voteCount",
          "type": "uint256"
        }
      ],
      "payable": false,
      "stateMutability": "view",
      "type": "function"
    },
    {
      "constant": true,
      "inputs": [
        {
          "internalType": "address",
          "name": "",
          "type": "address"
        }
      ],
      "name": "voterDetails",
      "outputs": [
        {
          "internalType": "address",
          "name": "voterAddress",
          "type": "address"
        },
        {
          "internalType": "string",
          "name": "name",
          "type": "string"
        },
        {
          "internalType": "string",
          "name": "phone",
          "type": "string"
        },
        {
          "internalType": "bool",
          "name": "isVerified",
          "type": "bool"
        },
        {
          "internalType": "bool",
          "name": "hasVoted",
          "type": "bool"
        },
        {
          "internalType": "bool",
          "name": "isRegistered",
          "type": "bool"
        }
      ],
      "payable": false,
      "stateMutability": "view",
      "type": "function"
    },
    {
      "constant": true,
      "inputs": [
        {
          "internalType": "uint256",
          "name": "",
          "type": "uint256"
        }
      ],
      "name": "voters",
      "outputs": [
        {
          "internalType": "address",
          "name": "",
          "type": "address"
        }
      ],
      "payable": false,
      "stateMutability": "view",
      "type": "function"
    },
    {
      "constant": true,
      "inputs": [],
      "name": "getAdmin",
      "outputs": [
        {
          "internalType": "address",
          "name": "",
          "type": "address"
        }
      ],
      "payable": false,
      "stateMutability": "view",
      "type": "function"
    },
    {
      "constant": false,
      "inputs": [
        {
          "internalType": "string",
          "name": "_header",
          "type": "string"
        },
        {
          "internalType": "string",
          "name": "_slogan",
          "type": "string"
        }
      ],
      "name": "addCandidate",
      "outputs": [],
      "payable": false,
      "stateMutability": "nonpayable",
      "type": "function"
    },
    {
      "constant": false,
      "inputs": [
        {
          "internalType": "string",
          "name": "_adminName",
          "type": "string"
        },
        {
          "internalType": "string",
          "name": "_adminEmail",
          "type": "string"
        },
        {
          "internalType": "string",
          "name": "_adminTitle",
          "type": "string"
        },
        {
          "internalType": "string",
          "name": "_electionTitle",
          "type": "string"
        },
        {
          "internalType": "string",
          "name": "_organizationTitle",
          "type": "string"
        }
      ],
      "name": "setElectionDetails",
      "outputs": [],
      "payable": false,
      "stateMutability": "nonpayable",
      "type": "function"
    },
    {
      "constant": true,
      "inputs": [],
      "name": "getAdminName",
      "outputs": [
        {
          "internalType": "string",
          "name": "",
          "type": "string"
        }
      ],
      "payable": false,
      "stateMutability": "view",
      "type": "function"
    },
    {
      "constant": true,
      "inputs": [],
      "name": "getAdminEmail",
      "outputs": [
        {
          "internalType": "string",
          "name": "",
          "type": "string"
        }
      ],
      "payable": false,
      "stateMutability": "view",
      "type": "function"
    },
    {
      "constant": true,
      "inputs": [],
      "name": "getAdminTitle",
      "outputs": [
        {
          "internalType": "string",
          "name": "",
          "type": "string"
        }
      ],
      "payable": false,
      "stateMutability": "view",
      "type": "function"
    },
    {
      "constant": true,
      "inputs": [],
      "name": "getElectionTitle",
      "outputs": [
        {
          "internalType": "string",
          "name": "",
          "type": "string"
        }
      ],
      "payable": false,
      "stateMutability": "view",
      "type": "function"
    },
    {
      "constant": true,
      "inputs": [],
      "name": "getOrganizationTitle",
      "outputs": [
        {
          "internalType": "string",
          "name": "",
          "type": "string"
        }
      ],
      "payable": false,
      "stateMutability": "view",
      "type": "function"
    },
    {
      "constant": true,
      "inputs": [],
      "name": "getTotalCandidate",
      "outputs": [
        {
          "internalType": "uint256",
          "name": "",
          "type": "uint256"
        }
      ],
      "payable": false,
      "stateMutability": "view",
      "type": "function"
    },
    {
      "constant": true,
      "inputs": [],
      "name": "getTotalVoter",
      "outputs": [
        {
          "internalType": "uint256",
          "name": "",
          "type": "uint256"
        }
      ],
      "payable": false,
      "stateMutability": "view",
      "type": "function"
    },
    {
      "constant": false,
      "inputs": [
        {
          "internalType": "string",
          "name": "_name",
          "type": "string"
        },
        {
          "internalType": "string",
          "name": "_phone",
          "type": "string"
        }
      ],
      "name": "registerAsVoter",
      "outputs": [],
      "payable": false,
      "stateMutability": "nonpayable",
      "type": "function"
    },
    {
      "constant": false,
      "inputs": [
        {
          "internalType": "bool",
          "name": "_verifedStatus",
          "type": "bool"
        },
        {
          "internalType": "address",
          "name": "voterAddress",
          "type": "address"
        }
      ],
      "name": "verifyVoter",
      "outputs": [],
      "payable": false,
      "stateMutability": "nonpayable",
      "type": "function"
    },
    {
      "constant": false,
      "inputs": [
        {
          "internalType": "uint256",
          "name": "candidateId",
          "type": "uint256"
        }
      ],
      "name": "vote",
      "outputs": [],
      "payable": false,
      "stateMutability": "nonpayable",
      "type": "function"
    },
    {
      "constant": false,
      "inputs": [],
      "name": "endElection",
      "outputs": [],
      "payable": false,
      "stateMutability": "nonpayable",
      "type": "function"
    },
    {
      "constant": true,
      "inputs": [],
      "name": "getStart",
      "outputs": [
        {
          "internalType": "bool",
          "name": "",
          "type": "bool"
        }
      ],
      "payable": false,
      "stateMutability": "view",
      "type": "function"
    },
    {
      "constant": true,
      "inputs": [],
      "name": "getEnd",
      "outputs": [
        {
          "internalType": "bool",
          "name": "",
          "type": "bool"
        }
      ],
      "payable": false,
      "stateMutability": "view",
      "type": "function"
    }
  ],
  "bytecode": "0x608060405234801561001057600080fd5b50600080546001600160a01b0319163317815560018190556002556003805461ffff1916905561141b806100456000396000f3fe608060405234801561001057600080fd5b506004361061012c5760003560e01c806364d198a1116100ad578063c5292c6711610071578063c5292c6714610899578063da58c7d9146108a1578063e173730c146108be578063f851a440146108c6578063fee0d19a146108ce5761012c565b806364d198a1146108415780636e9960c314610849578063831318f11461086d5780639f05a36d14610875578063be081b6f146108915761012c565b806348343175116100f457806348343175146105c8578063506b8e0a146105d05780635938750d146105fe57806359f78468146107305780636247e532146107385761012c565b80630121b93f146101315780630b93400e146101505780630e2354cf1461016a578063253e74e2146101e757806326541b561461049f575b600080fd5b61014e6004803603602081101561014757600080fd5b50356109f7565b005b610158610aa1565b60408051918252519081900360200190f35b610172610aa8565b6040805160208082528351818301528351919283929083019185019080838360005b838110156101ac578181015183820152602001610194565b50505050905090810190601f1680156101d95780820380516001836020036101000a031916815260200191505b509250505060405180910390f35b61014e600480360360a08110156101fd57600080fd5b810190602081018135600160201b81111561021757600080fd5b82018360208201111561022957600080fd5b803590602001918460018302840111600160201b8311171561024a57600080fd5b91908080601f0160208091040260200160405190810160405280939291908181526020018383808284376000920191909152509295949360208101935035915050600160201b81111561029c57600080fd5b8201836020820111156102ae57600080fd5b803590602001918460018302840111600160201b831117156102cf57600080fd5b91908080601f0160208091040260200160405190810160405280939291908181526020018383808284376000920191909152509295949360208101935035915050600160201b81111561032157600080fd5b82018360208201111561033357600080fd5b803590602001918460018302840111600160201b8311171561035457600080fd5b91908080601f0160208091040260200160405190810160405280939291908181526020018383808284376000920191909152509295949360208101935035915050600160201b8111156103a657600080fd5b8201836020820111156103b857600080fd5b803590602001918460018302840111600160201b831117156103d957600080fd5b91908080601f0160208091040260200160405190810160405280939291908181526020018383808284376000920191909152509295949360208101935035915050600160201b81111561042b57600080fd5b82018360208201111561043d57600080fd5b803590602001918460018302840111600160201b8311171561045e57600080fd5b91908080601f016020809104026020016040519081016040528093929190818152602001838380828437600092019190915250929550610b3e945050505050565b61014e600480360360408110156104b557600080fd5b810190602081018135600160201b8111156104cf57600080fd5b8201836020820111156104e157600080fd5b803590602001918460018302840111600160201b8311171561050257600080fd5b91908080601f0160208091040260200160405190810160405280939291908181526020018383808284376000920191909152509295949360208101935035915050600160201b81111561055457600080fd5b82018360208201111561056657600080fd5b803590602001918460018302840111600160201b8311171561058757600080fd5b91908080601f016020809104026020016040519081016040528093929190818152602001838380828437600092019190915250929550610c1f945050505050565b610172610cc6565b61014e600480360360408110156105e657600080fd5b508035151590602001356001600160a01b0316610d27565b6106246004803603602081101561061457600080fd5b50356001600160a01b0316610d69565b604080516001600160a01b03881681528415156060820152831515608082015282151560a082015260c060208083018281528951928401929092528851929391929184019160e08501918a019080838360005b8381101561068f578181015183820152602001610677565b50505050905090810190601f1680156106bc5780820380516001836020036101000a031916815260200191505b50838103825287518152875160209182019189019080838360005b838110156106ef5781810151838201526020016106d7565b50505050905090810190601f16801561071c5780820380516001836020036101000a031916815260200191505b509850505050505050505060405180910390f35b61014e610ecb565b6107556004803603602081101561074e57600080fd5b5035610ef9565b604051808581526020018060200180602001848152602001838103835286818151815260200191508051906020019080838360005b838110156107a257818101518382015260200161078a565b50505050905090810190601f1680156107cf5780820380516001836020036101000a031916815260200191505b50838103825285518152855160209182019187019080838360005b838110156108025781810151838201526020016107ea565b50505050905090810190601f16801561082f5780820380516001836020036101000a031916815260200191505b50965050505050505060405180910390f35b610158611038565b61085161103e565b604080516001600160a01b039092168252519081900360200190f35b61017261104d565b61087d6110ae565b604080519115158252519081900360200190f35b6101726110bc565b61087d61111d565b610851600480360360208110156108b757600080fd5b5035611126565b61017261114d565b6108516111ae565b61014e600480360360408110156108e457600080fd5b810190602081018135600160201b8111156108fe57600080fd5b82018360208201111561091057600080fd5b803590602001918460018302840111600160201b8311171561093157600080fd5b91908080601f0160208091040260200160405190810160405280939291908181526020018383808284376000920191909152509295949360208101935035915050600160201b81111561098357600080fd5b82018360208201111561099557600080fd5b803590602001918460018302840111600160201b831117156109b657600080fd5b91908080601f0160208091040260200160405190810160405280939291908181526020018383808284376000920191909152509295506111bd945050505050565b336000908152600b6020526040902060030154610100900460ff1615610a1c57600080fd5b336000908152600b602052604090206003015460ff161515600114610a4057600080fd5b60035460ff161515600114610a5457600080fd5b600354610100900460ff1615610a6957600080fd5b6000908152600460209081526040808320600390810180546001019055338452600b90925290912001805461ff001916610100179055565b6002545b90565b60058054604080516020601f6002600019610100600188161502019095169490940493840181900481028201810190925282815260609390929091830182828015610b345780601f10610b0957610100808354040283529160200191610b34565b820191906000526020600020905b815481529060010190602001808311610b1757829003601f168201915b5050505050905090565b6000546001600160a01b03163314610b5557600080fd5b6040805160a0810182528681526020808201879052918101859052606081018490526080810183905286519091600591610b94918391908a01906112f0565b506020828101518051610bad92600185019201906112f0565b5060408201518051610bc99160028401916020909101906112f0565b5060608201518051610be59160038401916020909101906112f0565b5060808201518051610c019160048401916020909101906112f0565b50506003805461ff001960ff19909116600117169055505050505050565b6000546001600160a01b03163314610c3657600080fd5b610c3e61136e565b506040805160808101825260018054808352602080840187815284860187905260006060860181905292835260048252949091208351815593518051939485949093610c8f939085019201906112f0565b5060408201518051610cab9160028401916020909101906112f0565b50606091909101516003909101555050600180548101905550565b60098054604080516020601f6002600019610100600188161502019095169490940493840181900481028201810190925282815260609390929091830182828015610b345780601f10610b0957610100808354040283529160200191610b34565b6000546001600160a01b03163314610d3e57600080fd5b6001600160a01b03166000908152600b60205260409020600301805460ff1916911515919091179055565b600b602090815260009182526040918290208054600180830180548651600261010094831615949094026000190190911692909204601f81018690048602830186019096528582526001600160a01b03909216949293909290830182828015610e135780601f10610de857610100808354040283529160200191610e13565b820191906000526020600020905b815481529060010190602001808311610df657829003601f168201915b50505060028085018054604080516020601f6000196101006001871615020190941695909504928301859004850281018501909152818152959695945090925090830182828015610ea55780601f10610e7a57610100808354040283529160200191610ea5565b820191906000526020600020905b815481529060010190602001808311610e8857829003601f168201915b5050506003909301549192505060ff808216916101008104821691620100009091041686565b6000546001600160a01b03163314610ee257600080fd5b6003805460ff1961ff001990911661010017169055565b6004602090815260009182526040918290208054600180830180548651600293821615610100026000190190911692909204601f810186900486028301860190965285825291949293909290830182828015610f965780601f10610f6b57610100808354040283529160200191610f96565b820191906000526020600020905b815481529060010190602001808311610f7957829003601f168201915b50505060028085018054604080516020601f60001961010060018716150201909416959095049283018590048502810185019091528181529596959450909250908301828280156110285780601f10610ffd57610100808354040283529160200191611028565b820191906000526020600020905b81548152906001019060200180831161100b57829003601f168201915b5050505050908060030154905084565b60015490565b6000546001600160a01b031690565b60068054604080516020601f6002600019610100600188161502019095169490940493840181900481028201810190925282815260609390929091830182828015610b345780601f10610b0957610100808354040283529160200191610b34565b600354610100900460ff1690565b60078054604080516020601f6002600019610100600188161502019095169490940493840181900481028201810190925282815260609390929091830182828015610b345780601f10610b0957610100808354040283529160200191610b34565b60035460ff1690565b600a818154811061113357fe5b6000918252602090912001546001600160a01b0316905081565b60088054604080516020601f6002600019610100600188161502019095169490940493840181900481028201810190925282815260609390929091830182828015610b345780601f10610b0957610100808354040283529160200191610b34565b6000546001600160a01b031681565b6111c5611396565b506040805160c08101825233808252602080830186815283850186905260006060850181905260808501819052600160a08601819052938152600b835294909420835181546001600160a01b0319166001600160a01b039091161781559351805193948594909361123b939085019201906112f0565b50604082015180516112579160028401916020909101906112f0565b50606082015160039091018054608084015160a0909401511515620100000262ff0000199415156101000261ff001994151560ff19909316929092179390931617929092161790555050600a8054600181810183556000929092527fc65a7bb8d6351c1cf70c95a316cc6a92839c986682d98bc35f958f4883f9d2a80180546001600160a01b0319163317905560028054909101905550565b828054600181600116156101000203166002900490600052602060002090601f016020900481019282601f1061133157805160ff191683800117855561135e565b8280016001018555821561135e579182015b8281111561135e578251825591602001919060010190611343565b5061136a9291506113cc565b5090565b6040518060800160405280600081526020016060815260200160608152602001600081525090565b6040805160c08101825260008082526060602083018190529282018390529181018290526080810182905260a081019190915290565b610aa591905b8082111561136a57600081556001016113d256fea265627a7a72315820c4931b7ae02713573fea0b53a9885e1a5046e84e52eb95dc384219860c92d71a64736f6c63430005100032",
  "source": "// SPDX-License-Identifier: MIT\r\npragma solidity >=0.4.21 <0.9.0;\r\n\r\ncontract Election {\r\n    address public admin;\r\n    uint256 candidateCount;\r\n    uint256 voterCount;\r\n    bool start;\r\n    bool end;\r\n\r\n    constructor() public {\r\n        // Initilizing default values\r\n        admin = msg.sender;\r\n        candidateCount = 0;\r\n        voterCount = 0;\r\n        start = false;\r\n        end = false;\r\n    }\r\n\r\n    function getAdmin() public view returns (address) {\r\n        // Returns account address used to deploy contract (i.e. admin)\r\n        return admin;\r\n    }\r\n\r\n    modifier onlyAdmin() {\r\n        // Modifier for only admin access\r\n        require(msg.sender == admin);\r\n        _;\r\n    }\r\n    // Modeling a candidate\r\n    struct Candidate {\r\n        uint256 candidateId;\r\n        string header;\r\n        string slogan;\r\n        uint256 voteCount;\r\n    }\r\n    mapping(uint256 => Candidate) public candidateDetails;\r\n\r\n    // Adding new candidates\r\n    function addCandidate(string memory _header, string memory _slogan)\r\n        public\r\n        // Only admin can add\r\n        onlyAdmin\r\n    {\r\n        Candidate memory newCandidate = Candidate({\r\n            candidateId: candidateCount,\r\n            header: _header,\r\n            slogan: _slogan,\r\n            voteCount: 0\r\n        });\r\n        candidateDetails[candidateCount] = newCandidate;\r\n        candidateCount += 1;\r\n    }\r\n\r\n    // Modeling a Election Details\r\n    struct ElectionDetails {\r\n        string adminName;\r\n        string adminEmail;\r\n        string adminTitle;\r\n        string electionTitle;\r\n        string organizationTitle;\r\n    }\r\n    ElectionDetails electionDetails;\r\n\r\n    function setElectionDetails(\r\n        string memory _adminName,\r\n        string memory _adminEmail,\r\n        string memory _adminTitle,\r\n        string memory _electionTitle,\r\n        string memory _organizationTitle\r\n    )\r\n        public\r\n        // Only admin can add\r\n        onlyAdmin\r\n    {\r\n        electionDetails = ElectionDetails(\r\n            _adminName,\r\n            _adminEmail,\r\n            _adminTitle,\r\n            _electionTitle,\r\n            _organizationTitle\r\n        );\r\n        start = true;\r\n        end = false;\r\n    }\r\n\r\n    // Get Elections details\r\n    function getAdminName() public view returns (string memory) {\r\n        return electionDetails.adminName;\r\n    }\r\n\r\n    function getAdminEmail() public view returns (string memory) {\r\n        return electionDetails.adminEmail;\r\n    }\r\n\r\n    function getAdminTitle() public view returns (string memory) {\r\n        return electionDetails.adminTitle;\r\n    }\r\n\r\n    function getElectionTitle() public view returns (string memory) {\r\n        return electionDetails.electionTitle;\r\n    }\r\n\r\n    function getOrganizationTitle() public view returns (string memory) {\r\n        return electionDetails.organizationTitle;\r\n    }\r\n\r\n    // Get candidates count\r\n    function getTotalCandidate() public view returns (uint256) {\r\n        // Returns total number of candidates\r\n        return candidateCount;\r\n    }\r\n\r\n    // Get voters count\r\n    function getTotalVoter() public view returns (uint256) {\r\n        // Returns total number of voters\r\n        return voterCount;\r\n    }\r\n\r\n    // Modeling a voter\r\n    struct Voter {\r\n        address voterAddress;\r\n        string name;\r\n        string phone;\r\n        bool isVerified;\r\n        bool hasVoted;\r\n        bool isRegistered;\r\n    }\r\n    address[] public voters; // Array of address to store address of voters\r\n    mapping(address => Voter) public voterDetails;\r\n\r\n    // Request to be added as voter\r\n    function registerAsVoter(string memory _name, string memory _phone) public {\r\n        Voter memory newVoter = Voter({\r\n            voterAddress: msg.sender,\r\n            name: _name,\r\n            phone: _phone,\r\n            hasVoted: false,\r\n            isVerified: false,\r\n            isRegistered: true\r\n        });\r\n        voterDetails[msg.sender] = newVoter;\r\n        voters.push(msg.sender);\r\n        voterCount += 1;\r\n    }\r\n\r\n    // Verify voter\r\n    function verifyVoter(bool _verifedStatus, address voterAddress)\r\n        public\r\n        // Only admin can verify\r\n        onlyAdmin\r\n    {\r\n        voterDetails[voterAddress].isVerified = _verifedStatus;\r\n    }\r\n\r\n    // Vote\r\n    function vote(uint256 candidateId) public {\r\n        require(voterDetails[msg.sender].hasVoted == false);\r\n        require(voterDetails[msg.sender].isVerified == true);\r\n        require(start == true);\r\n        require(end == false);\r\n        candidateDetails[candidateId].voteCount += 1;\r\n        voterDetails[msg.sender].hasVoted = true;\r\n    }\r\n\r\n    // End election\r\n    function endElection() public onlyAdmin {\r\n        end = true;\r\n        start = false;\r\n    }\r\n\r\n    // Get election start and end values\r\n    function getStart() public view returns (bool) {\r\n        return start;\r\n    }\r\n\r\n    function getEnd() public view returns (bool) {\r\n        return end;\r\n    }\r\n}\r\n",
  "sourcePath": "E:\\Bismillah Skripsi\\code\\polygon-voting\\contracts\\Election.sol",
  "compiler": {
    "name": "solc",
    "version": "0.5.16+commit.9c3226ce.Emscripten.clang"
  },
  "schemaVersion": "3.4.10",
  "updatedAt": "2022-11-20T03:04:56.362Z",
  "networkType": "ethereum",
  "devdoc": {
    "methods": {}
  },
  "userdoc": {
    "methods": {}
  }
}