{
  "contractName": "Election",
  "abi": [
    {
      "inputs": [],
      "stateMutability": "nonpayable",
      "type": "constructor"
    },
    {
      "inputs": [],
      "name": "admin",
      "outputs": [
        {
          "internalType": "address",
          "name": "",
          "type": "address"
        }
      ],
      "stateMutability": "view",
      "type": "function",
      "constant": true
    },
    {
      "inputs": [
        {
          "internalType": "uint256",
          "name": "",
          "type": "uint256"
        }
      ],
      "name": "candidateDetails",
      "outputs": [
        {
          "internalType": "uint256",
          "name": "candidateId",
          "type": "uint256"
        },
        {
          "internalType": "string",
          "name": "header",
          "type": "string"
        },
        {
          "internalType": "string",
          "name": "slogan",
          "type": "string"
        },
        {
          "internalType": "uint256",
          "name": "voteCount",
          "type": "uint256"
        }
      ],
      "stateMutability": "view",
      "type": "function",
      "constant": true
    },
    {
      "inputs": [
        {
          "internalType": "address",
          "name": "",
          "type": "address"
        }
      ],
      "name": "voterDetails",
      "outputs": [
        {
          "internalType": "address",
          "name": "voterAddress",
          "type": "address"
        },
        {
          "internalType": "string",
          "name": "name",
          "type": "string"
        },
        {
          "internalType": "string",
          "name": "phone",
          "type": "string"
        },
        {
          "internalType": "bool",
          "name": "isVerified",
          "type": "bool"
        },
        {
          "internalType": "bool",
          "name": "hasVoted",
          "type": "bool"
        },
        {
          "internalType": "bool",
          "name": "isRegistered",
          "type": "bool"
        }
      ],
      "stateMutability": "view",
      "type": "function",
      "constant": true
    },
    {
      "inputs": [
        {
          "internalType": "uint256",
          "name": "",
          "type": "uint256"
        }
      ],
      "name": "voters",
      "outputs": [
        {
          "internalType": "address",
          "name": "",
          "type": "address"
        }
      ],
      "stateMutability": "view",
      "type": "function",
      "constant": true
    },
    {
      "inputs": [],
      "name": "getAdmin",
      "outputs": [
        {
          "internalType": "address",
          "name": "",
          "type": "address"
        }
      ],
      "stateMutability": "view",
      "type": "function",
      "constant": true
    },
    {
      "inputs": [
        {
          "internalType": "string",
          "name": "_header",
          "type": "string"
        },
        {
          "internalType": "string",
          "name": "_slogan",
          "type": "string"
        }
      ],
      "name": "addCandidate",
      "outputs": [],
      "stateMutability": "nonpayable",
      "type": "function"
    },
    {
      "inputs": [
        {
          "internalType": "string",
          "name": "_adminName",
          "type": "string"
        },
        {
          "internalType": "string",
          "name": "_adminEmail",
          "type": "string"
        },
        {
          "internalType": "string",
          "name": "_adminTitle",
          "type": "string"
        },
        {
          "internalType": "string",
          "name": "_electionTitle",
          "type": "string"
        },
        {
          "internalType": "string",
          "name": "_organizationTitle",
          "type": "string"
        }
      ],
      "name": "setElectionDetails",
      "outputs": [],
      "stateMutability": "nonpayable",
      "type": "function"
    },
    {
      "inputs": [],
      "name": "getAdminName",
      "outputs": [
        {
          "internalType": "string",
          "name": "",
          "type": "string"
        }
      ],
      "stateMutability": "view",
      "type": "function",
      "constant": true
    },
    {
      "inputs": [],
      "name": "getAdminEmail",
      "outputs": [
        {
          "internalType": "string",
          "name": "",
          "type": "string"
        }
      ],
      "stateMutability": "view",
      "type": "function",
      "constant": true
    },
    {
      "inputs": [],
      "name": "getAdminTitle",
      "outputs": [
        {
          "internalType": "string",
          "name": "",
          "type": "string"
        }
      ],
      "stateMutability": "view",
      "type": "function",
      "constant": true
    },
    {
      "inputs": [],
      "name": "getElectionTitle",
      "outputs": [
        {
          "internalType": "string",
          "name": "",
          "type": "string"
        }
      ],
      "stateMutability": "view",
      "type": "function",
      "constant": true
    },
    {
      "inputs": [],
      "name": "getOrganizationTitle",
      "outputs": [
        {
          "internalType": "string",
          "name": "",
          "type": "string"
        }
      ],
      "stateMutability": "view",
      "type": "function",
      "constant": true
    },
    {
      "inputs": [],
      "name": "getTotalCandidate",
      "outputs": [
        {
          "internalType": "uint256",
          "name": "",
          "type": "uint256"
        }
      ],
      "stateMutability": "view",
      "type": "function",
      "constant": true
    },
    {
      "inputs": [],
      "name": "getTotalVoter",
      "outputs": [
        {
          "internalType": "uint256",
          "name": "",
          "type": "uint256"
        }
      ],
      "stateMutability": "view",
      "type": "function",
      "constant": true
    },
    {
      "inputs": [
        {
          "internalType": "string",
          "name": "_name",
          "type": "string"
        },
        {
          "internalType": "string",
          "name": "_phone",
          "type": "string"
        }
      ],
      "name": "registerAsVoter",
      "outputs": [],
      "stateMutability": "nonpayable",
      "type": "function"
    },
    {
      "inputs": [
        {
          "internalType": "bool",
          "name": "_verifedStatus",
          "type": "bool"
        },
        {
          "internalType": "address",
          "name": "voterAddress",
          "type": "address"
        }
      ],
      "name": "verifyVoter",
      "outputs": [],
      "stateMutability": "nonpayable",
      "type": "function"
    },
    {
      "inputs": [
        {
          "internalType": "uint256",
          "name": "candidateId",
          "type": "uint256"
        }
      ],
      "name": "vote",
      "outputs": [],
      "stateMutability": "nonpayable",
      "type": "function"
    },
    {
      "inputs": [],
      "name": "endElection",
      "outputs": [],
      "stateMutability": "nonpayable",
      "type": "function"
    },
    {
      "inputs": [],
      "name": "getStart",
      "outputs": [
        {
          "internalType": "bool",
          "name": "",
          "type": "bool"
        }
      ],
      "stateMutability": "view",
      "type": "function",
      "constant": true
    },
    {
      "inputs": [],
      "name": "getEnd",
      "outputs": [
        {
          "internalType": "bool",
          "name": "",
          "type": "bool"
        }
      ],
      "stateMutability": "view",
      "type": "function",
      "constant": true
    }
  ],
  "bytecode": "0x608060405234801561001057600080fd5b50336000806101000a81548173ffffffffffffffffffffffffffffffffffffffff021916908373ffffffffffffffffffffffffffffffffffffffff160217905550600060018190555060006002819055506000600360006101000a81548160ff0219169083151502179055506000600360016101000a81548160ff021916908315150217905550611aaa806100a66000396000f3fe608060405234801561001057600080fd5b506004361061012c5760003560e01c806364d198a1116100ad578063c5292c6711610071578063c5292c6714610303578063da58c7d914610321578063e173730c14610351578063f851a4401461036f578063fee0d19a1461038d5761012c565b806364d198a11461026d5780636e9960c31461028b578063831318f1146102a95780639f05a36d146102c7578063be081b6f146102e55761012c565b806348343175116100f457806348343175146101c1578063506b8e0a146101df5780635938750d146101fb57806359f78468146102305780636247e5321461023a5761012c565b80630121b93f146101315780630b93400e1461014d5780630e2354cf1461016b578063253e74e21461018957806326541b56146101a5575b600080fd5b61014b6004803603810190610146919061115d565b6103a9565b005b610155610535565b6040516101629190611199565b60405180910390f35b61017361053f565b6040516101809190611244565b60405180910390f35b6101a3600480360381019061019e919061139b565b6105d4565b005b6101bf60048036038101906101ba91906114a2565b610703565b005b6101c96107fa565b6040516101d69190611244565b60405180910390f35b6101f960048036038101906101f491906115b0565b61088f565b005b610215600480360381019061021091906115f0565b610945565b6040516102279695949392919061163b565b60405180910390f35b610238610ad8565b005b610254600480360381019061024f919061115d565b610b68565b60405161026494939291906116aa565b60405180910390f35b610275610ca8565b6040516102829190611199565b60405180910390f35b610293610cb2565b6040516102a091906116fd565b60405180910390f35b6102b1610cdb565b6040516102be9190611244565b60405180910390f35b6102cf610d70565b6040516102dc9190611718565b60405180910390f35b6102ed610d87565b6040516102fa9190611244565b60405180910390f35b61030b610e1c565b6040516103189190611718565b60405180910390f35b61033b6004803603810190610336919061115d565b610e33565b60405161034891906116fd565b60405180910390f35b610359610e72565b6040516103669190611244565b60405180910390f35b610377610f07565b60405161038491906116fd565b60405180910390f35b6103a760048036038101906103a291906114a2565b610f2b565b005b60001515600b60003373ffffffffffffffffffffffffffffffffffffffff1673ffffffffffffffffffffffffffffffffffffffff16815260200190815260200160002060030160019054906101000a900460ff1615151461040957600080fd5b60011515600b60003373ffffffffffffffffffffffffffffffffffffffff1673ffffffffffffffffffffffffffffffffffffffff16815260200190815260200160002060030160009054906101000a900460ff1615151461046957600080fd5b60011515600360009054906101000a900460ff1615151461048957600080fd5b60001515600360019054906101000a900460ff161515146104a957600080fd5b60016004600083815260200190815260200160002060030160008282546104d09190611762565b925050819055506001600b60003373ffffffffffffffffffffffffffffffffffffffff1673ffffffffffffffffffffffffffffffffffffffff16815260200190815260200160002060030160016101000a81548160ff02191690831515021790555050565b6000600254905090565b606060056000018054610551906117c5565b80601f016020809104026020016040519081016040528092919081815260200182805461057d906117c5565b80156105ca5780601f1061059f576101008083540402835291602001916105ca565b820191906000526020600020905b8154815290600101906020018083116105ad57829003601f168201915b5050505050905090565b60008054906101000a900473ffffffffffffffffffffffffffffffffffffffff1673ffffffffffffffffffffffffffffffffffffffff163373ffffffffffffffffffffffffffffffffffffffff161461062c57600080fd5b6040518060a00160405280868152602001858152602001848152602001838152602001828152506005600082015181600001908161066a91906119a2565b50602082015181600101908161068091906119a2565b50604082015181600201908161069691906119a2565b5060608201518160030190816106ac91906119a2565b5060808201518160040190816106c291906119a2565b509050506001600360006101000a81548160ff0219169083151502179055506000600360016101000a81548160ff0219169083151502179055505050505050565b60008054906101000a900473ffffffffffffffffffffffffffffffffffffffff1673ffffffffffffffffffffffffffffffffffffffff163373ffffffffffffffffffffffffffffffffffffffff161461075b57600080fd5b60006040518060800160405280600154815260200184815260200183815260200160008152509050806004600060015481526020019081526020016000206000820151816000015560208201518160010190816107b891906119a2565b5060408201518160020190816107ce91906119a2565b506060820151816003015590505060018060008282546107ee9190611762565b92505081905550505050565b60606005600401805461080c906117c5565b80601f0160208091040260200160405190810160405280929190818152602001828054610838906117c5565b80156108855780601f1061085a57610100808354040283529160200191610885565b820191906000526020600020905b81548152906001019060200180831161086857829003601f168201915b5050505050905090565b60008054906101000a900473ffffffffffffffffffffffffffffffffffffffff1673ffffffffffffffffffffffffffffffffffffffff163373ffffffffffffffffffffffffffffffffffffffff16146108e757600080fd5b81600b60008373ffffffffffffffffffffffffffffffffffffffff1673ffffffffffffffffffffffffffffffffffffffff16815260200190815260200160002060030160006101000a81548160ff0219169083151502179055505050565b600b6020528060005260406000206000915090508060000160009054906101000a900473ffffffffffffffffffffffffffffffffffffffff169080600101805461098e906117c5565b80601f01602080910402602001604051908101604052809291908181526020018280546109ba906117c5565b8015610a075780601f106109dc57610100808354040283529160200191610a07565b820191906000526020600020905b8154815290600101906020018083116109ea57829003601f168201915b505050505090806002018054610a1c906117c5565b80601f0160208091040260200160405190810160405280929190818152602001828054610a48906117c5565b8015610a955780601f10610a6a57610100808354040283529160200191610a95565b820191906000526020600020905b815481529060010190602001808311610a7857829003601f168201915b5050505050908060030160009054906101000a900460ff16908060030160019054906101000a900460ff16908060030160029054906101000a900460ff16905086565b60008054906101000a900473ffffffffffffffffffffffffffffffffffffffff1673ffffffffffffffffffffffffffffffffffffffff163373ffffffffffffffffffffffffffffffffffffffff1614610b3057600080fd5b6001600360016101000a81548160ff0219169083151502179055506000600360006101000a81548160ff021916908315150217905550565b6004602052806000526040600020600091509050806000015490806001018054610b91906117c5565b80601f0160208091040260200160405190810160405280929190818152602001828054610bbd906117c5565b8015610c0a5780601f10610bdf57610100808354040283529160200191610c0a565b820191906000526020600020905b815481529060010190602001808311610bed57829003601f168201915b505050505090806002018054610c1f906117c5565b80601f0160208091040260200160405190810160405280929190818152602001828054610c4b906117c5565b8015610c985780601f10610c6d57610100808354040283529160200191610c98565b820191906000526020600020905b815481529060010190602001808311610c7b57829003601f168201915b5050505050908060030154905084565b6000600154905090565b60008060009054906101000a900473ffffffffffffffffffffffffffffffffffffffff16905090565b606060056001018054610ced906117c5565b80601f0160208091040260200160405190810160405280929190818152602001828054610d19906117c5565b8015610d665780601f10610d3b57610100808354040283529160200191610d66565b820191906000526020600020905b815481529060010190602001808311610d4957829003601f168201915b5050505050905090565b6000600360019054906101000a900460ff16905090565b606060056002018054610d99906117c5565b80601f0160208091040260200160405190810160405280929190818152602001828054610dc5906117c5565b8015610e125780601f10610de757610100808354040283529160200191610e12565b820191906000526020600020905b815481529060010190602001808311610df557829003601f168201915b5050505050905090565b6000600360009054906101000a900460ff16905090565b600a8181548110610e4357600080fd5b906000526020600020016000915054906101000a900473ffffffffffffffffffffffffffffffffffffffff1681565b606060056003018054610e84906117c5565b80601f0160208091040260200160405190810160405280929190818152602001828054610eb0906117c5565b8015610efd5780601f10610ed257610100808354040283529160200191610efd565b820191906000526020600020905b815481529060010190602001808311610ee057829003601f168201915b5050505050905090565b60008054906101000a900473ffffffffffffffffffffffffffffffffffffffff1681565b60006040518060c001604052803373ffffffffffffffffffffffffffffffffffffffff16815260200184815260200183815260200160001515815260200160001515815260200160011515815250905080600b60003373ffffffffffffffffffffffffffffffffffffffff1673ffffffffffffffffffffffffffffffffffffffff16815260200190815260200160002060008201518160000160006101000a81548173ffffffffffffffffffffffffffffffffffffffff021916908373ffffffffffffffffffffffffffffffffffffffff160217905550602082015181600101908161101791906119a2565b50604082015181600201908161102d91906119a2565b5060608201518160030160006101000a81548160ff02191690831515021790555060808201518160030160016101000a81548160ff02191690831515021790555060a08201518160030160026101000a81548160ff021916908315150217905550905050600a339080600181540180825580915050600190039060005260206000200160009091909190916101000a81548173ffffffffffffffffffffffffffffffffffffffff021916908373ffffffffffffffffffffffffffffffffffffffff1602179055506001600260008282546111079190611762565b92505081905550505050565b6000604051905090565b600080fd5b600080fd5b6000819050919050565b61113a81611127565b811461114557600080fd5b50565b60008135905061115781611131565b92915050565b6000602082840312156111735761117261111d565b5b600061118184828501611148565b91505092915050565b61119381611127565b82525050565b60006020820190506111ae600083018461118a565b92915050565b600081519050919050565b600082825260208201905092915050565b60005b838110156111ee5780820151818401526020810190506111d3565b60008484015250505050565b6000601f19601f8301169050919050565b6000611216826111b4565b61122081856111bf565b93506112308185602086016111d0565b611239816111fa565b840191505092915050565b6000602082019050818103600083015261125e818461120b565b905092915050565b600080fd5b600080fd5b7f4e487b7100000000000000000000000000000000000000000000000000000000600052604160045260246000fd5b6112a8826111fa565b810181811067ffffffffffffffff821117156112c7576112c6611270565b5b80604052505050565b60006112da611113565b90506112e6828261129f565b919050565b600067ffffffffffffffff82111561130657611305611270565b5b61130f826111fa565b9050602081019050919050565b82818337600083830152505050565b600061133e611339846112eb565b6112d0565b90508281526020810184848401111561135a5761135961126b565b5b61136584828561131c565b509392505050565b600082601f83011261138257611381611266565b5b813561139284826020860161132b565b91505092915050565b600080600080600060a086880312156113b7576113b661111d565b5b600086013567ffffffffffffffff8111156113d5576113d4611122565b5b6113e18882890161136d565b955050602086013567ffffffffffffffff81111561140257611401611122565b5b61140e8882890161136d565b945050604086013567ffffffffffffffff81111561142f5761142e611122565b5b61143b8882890161136d565b935050606086013567ffffffffffffffff81111561145c5761145b611122565b5b6114688882890161136d565b925050608086013567ffffffffffffffff81111561148957611488611122565b5b6114958882890161136d565b9150509295509295909350565b600080604083850312156114b9576114b861111d565b5b600083013567ffffffffffffffff8111156114d7576114d6611122565b5b6114e38582860161136d565b925050602083013567ffffffffffffffff81111561150457611503611122565b5b6115108582860161136d565b9150509250929050565b60008115159050919050565b61152f8161151a565b811461153a57600080fd5b50565b60008135905061154c81611526565b92915050565b600073ffffffffffffffffffffffffffffffffffffffff82169050919050565b600061157d82611552565b9050919050565b61158d81611572565b811461159857600080fd5b50565b6000813590506115aa81611584565b92915050565b600080604083850312156115c7576115c661111d565b5b60006115d58582860161153d565b92505060206115e68582860161159b565b9150509250929050565b6000602082840312156116065761160561111d565b5b60006116148482850161159b565b91505092915050565b61162681611572565b82525050565b6116358161151a565b82525050565b600060c082019050611650600083018961161d565b8181036020830152611662818861120b565b90508181036040830152611676818761120b565b9050611685606083018661162c565b611692608083018561162c565b61169f60a083018461162c565b979650505050505050565b60006080820190506116bf600083018761118a565b81810360208301526116d1818661120b565b905081810360408301526116e5818561120b565b90506116f4606083018461118a565b95945050505050565b6000602082019050611712600083018461161d565b92915050565b600060208201905061172d600083018461162c565b92915050565b7f4e487b7100000000000000000000000000000000000000000000000000000000600052601160045260246000fd5b600061176d82611127565b915061177883611127565b92508282019050808211156117905761178f611733565b5b92915050565b7f4e487b7100000000000000000000000000000000000000000000000000000000600052602260045260246000fd5b600060028204905060018216806117dd57607f821691505b6020821081036117f0576117ef611796565b5b50919050565b60008190508160005260206000209050919050565b60006020601f8301049050919050565b600082821b905092915050565b6000600883026118587fffffffffffffffffffffffffffffffffffffffffffffffffffffffffffffffff8261181b565b611862868361181b565b95508019841693508086168417925050509392505050565b6000819050919050565b600061189f61189a61189584611127565b61187a565b611127565b9050919050565b6000819050919050565b6118b983611884565b6118cd6118c5826118a6565b848454611828565b825550505050565b600090565b6118e26118d5565b6118ed8184846118b0565b505050565b5b81811015611911576119066000826118da565b6001810190506118f3565b5050565b601f82111561195657611927816117f6565b6119308461180b565b8101602085101561193f578190505b61195361194b8561180b565b8301826118f2565b50505b505050565b600082821c905092915050565b60006119796000198460080261195b565b1980831691505092915050565b60006119928383611968565b9150826002028217905092915050565b6119ab826111b4565b67ffffffffffffffff8111156119c4576119c3611270565b5b6119ce82546117c5565b6119d9828285611915565b600060209050601f831160018114611a0c57600084156119fa578287015190505b611a048582611986565b865550611a6c565b601f198416611a1a866117f6565b60005b82811015611a4257848901518255600182019150602085019450602081019050611a1d565b86831015611a5f5784890151611a5b601f891682611968565b8355505b6001600288020188555050505b50505050505056fea2646970667358221220781b0598dbe98bba5e0c34980160ed5789668f8b23ea26950567e9db2acb57b664736f6c63430008120033",
  "immutableReferences": {},
  "source": "// SPDX-License-Identifier: MIT\r\npragma solidity ^0.8.9;\r\n\r\ncontract Election {\r\n    address public admin;\r\n    uint256 candidateCount;\r\n    uint256 voterCount;\r\n    bool start;\r\n    bool end;\r\n\r\n    constructor() {\r\n        // Initilizing default values\r\n        admin = msg.sender;\r\n        candidateCount = 0;\r\n        voterCount = 0;\r\n        start = false;\r\n        end = false;\r\n    }\r\n\r\n    function getAdmin() public view returns (address) {\r\n        // Returns account address used to deploy contract (i.e. admin)\r\n        return admin;\r\n    }\r\n\r\n    modifier onlyAdmin() {\r\n        // Modifier for only admin access\r\n        require(msg.sender == admin);\r\n        _;\r\n    }\r\n    // Modeling a candidate\r\n    struct Candidate {\r\n        uint256 candidateId;\r\n        string header;\r\n        string slogan;\r\n        uint256 voteCount;\r\n    }\r\n    mapping(uint256 => Candidate) public candidateDetails;\r\n\r\n    // Adding new candidates\r\n    function addCandidate(\r\n        string memory _header,\r\n        string memory _slogan\r\n    )\r\n        public\r\n        // Only admin can add\r\n        onlyAdmin\r\n    {\r\n        Candidate memory newCandidate = Candidate({\r\n            candidateId: candidateCount,\r\n            header: _header,\r\n            slogan: _slogan,\r\n            voteCount: 0\r\n        });\r\n        candidateDetails[candidateCount] = newCandidate;\r\n        candidateCount += 1;\r\n    }\r\n\r\n    // Modeling a Election Details\r\n    struct ElectionDetails {\r\n        string adminName;\r\n        string adminEmail;\r\n        string adminTitle;\r\n        string electionTitle;\r\n        string organizationTitle;\r\n    }\r\n    ElectionDetails electionDetails;\r\n\r\n    function setElectionDetails(\r\n        string memory _adminName,\r\n        string memory _adminEmail,\r\n        string memory _adminTitle,\r\n        string memory _electionTitle,\r\n        string memory _organizationTitle\r\n    )\r\n        public\r\n        // Only admin can add\r\n        onlyAdmin\r\n    {\r\n        electionDetails = ElectionDetails(\r\n            _adminName,\r\n            _adminEmail,\r\n            _adminTitle,\r\n            _electionTitle,\r\n            _organizationTitle\r\n        );\r\n        start = true;\r\n        end = false;\r\n    }\r\n\r\n    // Get Elections details\r\n    function getAdminName() public view returns (string memory) {\r\n        return electionDetails.adminName;\r\n    }\r\n\r\n    function getAdminEmail() public view returns (string memory) {\r\n        return electionDetails.adminEmail;\r\n    }\r\n\r\n    function getAdminTitle() public view returns (string memory) {\r\n        return electionDetails.adminTitle;\r\n    }\r\n\r\n    function getElectionTitle() public view returns (string memory) {\r\n        return electionDetails.electionTitle;\r\n    }\r\n\r\n    function getOrganizationTitle() public view returns (string memory) {\r\n        return electionDetails.organizationTitle;\r\n    }\r\n\r\n    // Get candidates count\r\n    function getTotalCandidate() public view returns (uint256) {\r\n        // Returns total number of candidates\r\n        return candidateCount;\r\n    }\r\n\r\n    // Get voters count\r\n    function getTotalVoter() public view returns (uint256) {\r\n        // Returns total number of voters\r\n        return voterCount;\r\n    }\r\n\r\n    // Modeling a voter\r\n    struct Voter {\r\n        address voterAddress;\r\n        string name;\r\n        string phone;\r\n        bool isVerified;\r\n        bool hasVoted;\r\n        bool isRegistered;\r\n    }\r\n    address[] public voters; // Array of address to store address of voters\r\n    mapping(address => Voter) public voterDetails;\r\n\r\n    // Request to be added as voter\r\n    function registerAsVoter(string memory _name, string memory _phone) public {\r\n        Voter memory newVoter = Voter({\r\n            voterAddress: msg.sender,\r\n            name: _name,\r\n            phone: _phone,\r\n            hasVoted: false,\r\n            isVerified: false,\r\n            isRegistered: true\r\n        });\r\n        voterDetails[msg.sender] = newVoter;\r\n        voters.push(msg.sender);\r\n        voterCount += 1;\r\n    }\r\n\r\n    // Verify voter\r\n    function verifyVoter(\r\n        bool _verifedStatus,\r\n        address voterAddress\r\n    )\r\n        public\r\n        // Only admin can verify\r\n        onlyAdmin\r\n    {\r\n        voterDetails[voterAddress].isVerified = _verifedStatus;\r\n    }\r\n\r\n    // Vote\r\n    function vote(uint256 candidateId) public {\r\n        require(voterDetails[msg.sender].hasVoted == false);\r\n        require(voterDetails[msg.sender].isVerified == true);\r\n        require(start == true);\r\n        require(end == false);\r\n        candidateDetails[candidateId].voteCount += 1;\r\n        voterDetails[msg.sender].hasVoted = true;\r\n    }\r\n\r\n    // End election\r\n    function endElection() public onlyAdmin {\r\n        end = true;\r\n        start = false;\r\n    }\r\n\r\n    // Get election start and end values\r\n    function getStart() public view returns (bool) {\r\n        return start;\r\n    }\r\n\r\n    function getEnd() public view returns (bool) {\r\n        return end;\r\n    }\r\n}\r\n",
  "sourcePath": "D:\\Project\\polygon-voting\\contracts\\Election.sol",
  "compiler": {
    "name": "solc",
    "version": "0.8.18+commit.87f61d96.Emscripten.clang"
  },
  "schemaVersion": "3.4.10",
  "updatedAt": "2023-02-08T00:45:29.823Z",
  "networkType": "ethereum",
  "devdoc": {
    "kind": "dev",
    "methods": {},
    "version": 1
  },
  "userdoc": {
    "kind": "user",
    "methods": {},
    "version": 1
  }
}