{
  "contractName": "Election",
  "abi": [
    {
      "inputs": [],
      "stateMutability": "nonpayable",
      "type": "constructor"
    },
    {
      "inputs": [],
      "name": "admin",
      "outputs": [
        {
          "internalType": "address",
          "name": "",
          "type": "address"
        }
      ],
      "stateMutability": "view",
      "type": "function",
      "constant": true
    },
    {
      "inputs": [
        {
          "internalType": "uint256",
          "name": "",
          "type": "uint256"
        }
      ],
      "name": "candidateDetails",
      "outputs": [
        {
          "internalType": "uint256",
          "name": "candidateId",
          "type": "uint256"
        },
        {
          "internalType": "string",
          "name": "header",
          "type": "string"
        },
        {
          "internalType": "string",
          "name": "slogan",
          "type": "string"
        },
        {
          "internalType": "uint256",
          "name": "voteCount",
          "type": "uint256"
        }
      ],
      "stateMutability": "view",
      "type": "function",
      "constant": true
    },
    {
      "inputs": [
        {
          "internalType": "address",
          "name": "",
          "type": "address"
        }
      ],
      "name": "voted",
      "outputs": [
        {
          "internalType": "bool",
          "name": "",
          "type": "bool"
        }
      ],
      "stateMutability": "view",
      "type": "function",
      "constant": true
    },
    {
      "inputs": [
        {
          "internalType": "address",
          "name": "",
          "type": "address"
        }
      ],
      "name": "voterDetails",
      "outputs": [
        {
          "internalType": "address",
          "name": "voterAddress",
          "type": "address"
        },
        {
          "internalType": "string",
          "name": "name",
          "type": "string"
        },
        {
          "internalType": "string",
          "name": "phone",
          "type": "string"
        },
        {
          "internalType": "bool",
          "name": "isVerified",
          "type": "bool"
        },
        {
          "internalType": "bool",
          "name": "hasVoted",
          "type": "bool"
        },
        {
          "internalType": "bool",
          "name": "isRegistered",
          "type": "bool"
        }
      ],
      "stateMutability": "view",
      "type": "function",
      "constant": true
    },
    {
      "inputs": [
        {
          "internalType": "uint256",
          "name": "",
          "type": "uint256"
        }
      ],
      "name": "voters",
      "outputs": [
        {
          "internalType": "address",
          "name": "",
          "type": "address"
        }
      ],
      "stateMutability": "view",
      "type": "function",
      "constant": true
    },
    {
      "inputs": [],
      "name": "getAdmin",
      "outputs": [
        {
          "internalType": "address",
          "name": "",
          "type": "address"
        }
      ],
      "stateMutability": "view",
      "type": "function",
      "constant": true
    },
    {
      "inputs": [
        {
          "internalType": "string",
          "name": "_header",
          "type": "string"
        },
        {
          "internalType": "string",
          "name": "_slogan",
          "type": "string"
        }
      ],
      "name": "addCandidate",
      "outputs": [],
      "stateMutability": "nonpayable",
      "type": "function"
    },
    {
      "inputs": [
        {
          "internalType": "string",
          "name": "_adminName",
          "type": "string"
        },
        {
          "internalType": "string",
          "name": "_adminEmail",
          "type": "string"
        },
        {
          "internalType": "string",
          "name": "_adminTitle",
          "type": "string"
        },
        {
          "internalType": "string",
          "name": "_electionTitle",
          "type": "string"
        },
        {
          "internalType": "string",
          "name": "_organizationTitle",
          "type": "string"
        }
      ],
      "name": "setElectionDetails",
      "outputs": [],
      "stateMutability": "nonpayable",
      "type": "function"
    },
    {
      "inputs": [],
      "name": "getAdminName",
      "outputs": [
        {
          "internalType": "string",
          "name": "",
          "type": "string"
        }
      ],
      "stateMutability": "view",
      "type": "function",
      "constant": true
    },
    {
      "inputs": [],
      "name": "getAdminEmail",
      "outputs": [
        {
          "internalType": "string",
          "name": "",
          "type": "string"
        }
      ],
      "stateMutability": "view",
      "type": "function",
      "constant": true
    },
    {
      "inputs": [],
      "name": "getAdminTitle",
      "outputs": [
        {
          "internalType": "string",
          "name": "",
          "type": "string"
        }
      ],
      "stateMutability": "view",
      "type": "function",
      "constant": true
    },
    {
      "inputs": [],
      "name": "getElectionTitle",
      "outputs": [
        {
          "internalType": "string",
          "name": "",
          "type": "string"
        }
      ],
      "stateMutability": "view",
      "type": "function",
      "constant": true
    },
    {
      "inputs": [],
      "name": "getOrganizationTitle",
      "outputs": [
        {
          "internalType": "string",
          "name": "",
          "type": "string"
        }
      ],
      "stateMutability": "view",
      "type": "function",
      "constant": true
    },
    {
      "inputs": [],
      "name": "getTotalCandidate",
      "outputs": [
        {
          "internalType": "uint256",
          "name": "",
          "type": "uint256"
        }
      ],
      "stateMutability": "view",
      "type": "function",
      "constant": true
    },
    {
      "inputs": [],
      "name": "getTotalVoter",
      "outputs": [
        {
          "internalType": "uint256",
          "name": "",
          "type": "uint256"
        }
      ],
      "stateMutability": "view",
      "type": "function",
      "constant": true
    },
    {
      "inputs": [
        {
          "internalType": "string",
          "name": "_name",
          "type": "string"
        },
        {
          "internalType": "string",
          "name": "_phone",
          "type": "string"
        }
      ],
      "name": "registerAsVoter",
      "outputs": [],
      "stateMutability": "nonpayable",
      "type": "function"
    },
    {
      "inputs": [
        {
          "internalType": "bool",
          "name": "_verifedStatus",
          "type": "bool"
        },
        {
          "internalType": "address",
          "name": "voterAddress",
          "type": "address"
        }
      ],
      "name": "verifyVoter",
      "outputs": [],
      "stateMutability": "nonpayable",
      "type": "function"
    },
    {
      "inputs": [
        {
          "internalType": "uint256",
          "name": "candidateId",
          "type": "uint256"
        }
      ],
      "name": "vote",
      "outputs": [],
      "stateMutability": "nonpayable",
      "type": "function"
    },
    {
      "inputs": [],
      "name": "endElection",
      "outputs": [],
      "stateMutability": "nonpayable",
      "type": "function"
    },
    {
      "inputs": [],
      "name": "getStart",
      "outputs": [
        {
          "internalType": "bool",
          "name": "",
          "type": "bool"
        }
      ],
      "stateMutability": "view",
      "type": "function",
      "constant": true
    },
    {
      "inputs": [],
      "name": "getEnd",
      "outputs": [
        {
          "internalType": "bool",
          "name": "",
          "type": "bool"
        }
      ],
      "stateMutability": "view",
      "type": "function",
      "constant": true
    }
  ],
  "bytecode": "0x608060405234801561001057600080fd5b50336000806101000a81548173ffffffffffffffffffffffffffffffffffffffff021916908373ffffffffffffffffffffffffffffffffffffffff160217905550600060018190555060006002819055506000600360006101000a81548160ff0219169083151502179055506000600360016101000a81548160ff021916908315150217905550611e23806100a66000396000f3fe608060405234801561001057600080fd5b50600436106101375760003560e01c806364d198a1116100b8578063be081b6f1161007c578063be081b6f14610320578063c5292c671461033e578063da58c7d91461035c578063e173730c1461038c578063f851a440146103aa578063fee0d19a146103c857610137565b806364d198a1146102785780636e9960c314610296578063831318f1146102b45780639f05a36d146102d2578063aec2ccae146102f057610137565b806348343175116100ff57806348343175146101cc578063506b8e0a146101ea5780635938750d1461020657806359f784681461023b5780636247e5321461024557610137565b80630121b93f1461013c5780630b93400e146101585780630e2354cf14610176578063253e74e21461019457806326541b56146101b0575b600080fd5b61015660048036038101906101519190611390565b6103e4565b005b610160610655565b60405161016d91906113cc565b60405180910390f35b61017e61065f565b60405161018b9190611477565b60405180910390f35b6101ae60048036038101906101a991906115ce565b6106f4565b005b6101ca60048036038101906101c591906116d5565b610823565b005b6101d461091a565b6040516101e19190611477565b60405180910390f35b61020460048036038101906101ff91906117e3565b6109af565b005b610220600480360381019061021b9190611823565b610a65565b6040516102329695949392919061186e565b60405180910390f35b610243610bf8565b005b61025f600480360381019061025a9190611390565b610d7b565b60405161026f94939291906118dd565b60405180910390f35b610280610ebb565b60405161028d91906113cc565b60405180910390f35b61029e610ec5565b6040516102ab9190611930565b60405180910390f35b6102bc610eee565b6040516102c99190611477565b60405180910390f35b6102da610f83565b6040516102e7919061194b565b60405180910390f35b61030a60048036038101906103059190611823565b610f9a565b604051610317919061194b565b60405180910390f35b610328610fba565b6040516103359190611477565b60405180910390f35b61034661104f565b604051610353919061194b565b60405180910390f35b61037660048036038101906103719190611390565b611066565b6040516103839190611930565b60405180910390f35b6103946110a5565b6040516103a19190611477565b60405180910390f35b6103b261113a565b6040516103bf9190611930565b60405180910390f35b6103e260048036038101906103dd91906116d5565b61115e565b005b600c60003373ffffffffffffffffffffffffffffffffffffffff1673ffffffffffffffffffffffffffffffffffffffff16815260200190815260200160002060009054906101000a900460ff1615610471576040517f08c379a0000000000000000000000000000000000000000000000000000000008152600401610468906119b2565b60405180910390fd5b60001515600b60003373ffffffffffffffffffffffffffffffffffffffff1673ffffffffffffffffffffffffffffffffffffffff16815260200190815260200160002060030160019054906101000a900460ff161515146104d157600080fd5b60011515600b60003373ffffffffffffffffffffffffffffffffffffffff1673ffffffffffffffffffffffffffffffffffffffff16815260200190815260200160002060030160009054906101000a900460ff1615151461053157600080fd5b60011515600360009054906101000a900460ff1615151461055157600080fd5b60001515600360019054906101000a900460ff1615151461057157600080fd5b60016004600083815260200190815260200160002060030160008282546105989190611a01565b925050819055506001600b60003373ffffffffffffffffffffffffffffffffffffffff1673ffffffffffffffffffffffffffffffffffffffff16815260200190815260200160002060030160016101000a81548160ff0219169083151502179055506001600c60003373ffffffffffffffffffffffffffffffffffffffff1673ffffffffffffffffffffffffffffffffffffffff16815260200190815260200160002060006101000a81548160ff02191690831515021790555050565b6000600254905090565b60606005600001805461067190611a64565b80601f016020809104026020016040519081016040528092919081815260200182805461069d90611a64565b80156106ea5780601f106106bf576101008083540402835291602001916106ea565b820191906000526020600020905b8154815290600101906020018083116106cd57829003601f168201915b5050505050905090565b60008054906101000a900473ffffffffffffffffffffffffffffffffffffffff1673ffffffffffffffffffffffffffffffffffffffff163373ffffffffffffffffffffffffffffffffffffffff161461074c57600080fd5b6040518060a00160405280868152602001858152602001848152602001838152602001828152506005600082015181600001908161078a9190611c41565b5060208201518160010190816107a09190611c41565b5060408201518160020190816107b69190611c41565b5060608201518160030190816107cc9190611c41565b5060808201518160040190816107e29190611c41565b509050506001600360006101000a81548160ff0219169083151502179055506000600360016101000a81548160ff0219169083151502179055505050505050565b60008054906101000a900473ffffffffffffffffffffffffffffffffffffffff1673ffffffffffffffffffffffffffffffffffffffff163373ffffffffffffffffffffffffffffffffffffffff161461087b57600080fd5b60006040518060800160405280600154815260200184815260200183815260200160008152509050806004600060015481526020019081526020016000206000820151816000015560208201518160010190816108d89190611c41565b5060408201518160020190816108ee9190611c41565b5060608201518160030155905050600180600082825461090e9190611a01565b92505081905550505050565b60606005600401805461092c90611a64565b80601f016020809104026020016040519081016040528092919081815260200182805461095890611a64565b80156109a55780601f1061097a576101008083540402835291602001916109a5565b820191906000526020600020905b81548152906001019060200180831161098857829003601f168201915b5050505050905090565b60008054906101000a900473ffffffffffffffffffffffffffffffffffffffff1673ffffffffffffffffffffffffffffffffffffffff163373ffffffffffffffffffffffffffffffffffffffff1614610a0757600080fd5b81600b60008373ffffffffffffffffffffffffffffffffffffffff1673ffffffffffffffffffffffffffffffffffffffff16815260200190815260200160002060030160006101000a81548160ff0219169083151502179055505050565b600b6020528060005260406000206000915090508060000160009054906101000a900473ffffffffffffffffffffffffffffffffffffffff1690806001018054610aae90611a64565b80601f0160208091040260200160405190810160405280929190818152602001828054610ada90611a64565b8015610b275780601f10610afc57610100808354040283529160200191610b27565b820191906000526020600020905b815481529060010190602001808311610b0a57829003601f168201915b505050505090806002018054610b3c90611a64565b80601f0160208091040260200160405190810160405280929190818152602001828054610b6890611a64565b8015610bb55780601f10610b8a57610100808354040283529160200191610bb5565b820191906000526020600020905b815481529060010190602001808311610b9857829003601f168201915b5050505050908060030160009054906101000a900460ff16908060030160019054906101000a900460ff16908060030160029054906101000a900460ff16905086565b60008054906101000a900473ffffffffffffffffffffffffffffffffffffffff1673ffffffffffffffffffffffffffffffffffffffff163373ffffffffffffffffffffffffffffffffffffffff1614610c5057600080fd5b60008060005b600154811015610cae578260046000838152602001908152602001600020600301541115610c9b57600460008281526020019081526020016000206003015492508091505b8080610ca690611d13565b915050610c56565b506000805b600154811015610cfc5783600460008381526020019081526020016000206003015403610ce9578180610ce590611d13565b9250505b8080610cf490611d13565b915050610cb3565b5060018114610d40576040517f08c379a0000000000000000000000000000000000000000000000000000000008152600401610d3790611dcd565b60405180910390fd5b6001600360016101000a81548160ff0219169083151502179055506000600360006101000a81548160ff021916908315150217905550505050565b6004602052806000526040600020600091509050806000015490806001018054610da490611a64565b80601f0160208091040260200160405190810160405280929190818152602001828054610dd090611a64565b8015610e1d5780601f10610df257610100808354040283529160200191610e1d565b820191906000526020600020905b815481529060010190602001808311610e0057829003601f168201915b505050505090806002018054610e3290611a64565b80601f0160208091040260200160405190810160405280929190818152602001828054610e5e90611a64565b8015610eab5780601f10610e8057610100808354040283529160200191610eab565b820191906000526020600020905b815481529060010190602001808311610e8e57829003601f168201915b5050505050908060030154905084565b6000600154905090565b60008060009054906101000a900473ffffffffffffffffffffffffffffffffffffffff16905090565b606060056001018054610f0090611a64565b80601f0160208091040260200160405190810160405280929190818152602001828054610f2c90611a64565b8015610f795780601f10610f4e57610100808354040283529160200191610f79565b820191906000526020600020905b815481529060010190602001808311610f5c57829003601f168201915b5050505050905090565b6000600360019054906101000a900460ff16905090565b600c6020528060005260406000206000915054906101000a900460ff1681565b606060056002018054610fcc90611a64565b80601f0160208091040260200160405190810160405280929190818152602001828054610ff890611a64565b80156110455780601f1061101a57610100808354040283529160200191611045565b820191906000526020600020905b81548152906001019060200180831161102857829003601f168201915b5050505050905090565b6000600360009054906101000a900460ff16905090565b600a818154811061107657600080fd5b906000526020600020016000915054906101000a900473ffffffffffffffffffffffffffffffffffffffff1681565b6060600560030180546110b790611a64565b80601f01602080910402602001604051908101604052809291908181526020018280546110e390611a64565b80156111305780601f1061110557610100808354040283529160200191611130565b820191906000526020600020905b81548152906001019060200180831161111357829003601f168201915b5050505050905090565b60008054906101000a900473ffffffffffffffffffffffffffffffffffffffff1681565b60006040518060c001604052803373ffffffffffffffffffffffffffffffffffffffff16815260200184815260200183815260200160001515815260200160001515815260200160011515815250905080600b60003373ffffffffffffffffffffffffffffffffffffffff1673ffffffffffffffffffffffffffffffffffffffff16815260200190815260200160002060008201518160000160006101000a81548173ffffffffffffffffffffffffffffffffffffffff021916908373ffffffffffffffffffffffffffffffffffffffff160217905550602082015181600101908161124a9190611c41565b5060408201518160020190816112609190611c41565b5060608201518160030160006101000a81548160ff02191690831515021790555060808201518160030160016101000a81548160ff02191690831515021790555060a08201518160030160026101000a81548160ff021916908315150217905550905050600a339080600181540180825580915050600190039060005260206000200160009091909190916101000a81548173ffffffffffffffffffffffffffffffffffffffff021916908373ffffffffffffffffffffffffffffffffffffffff16021790555060016002600082825461133a9190611a01565b92505081905550505050565b6000604051905090565b600080fd5b600080fd5b6000819050919050565b61136d8161135a565b811461137857600080fd5b50565b60008135905061138a81611364565b92915050565b6000602082840312156113a6576113a5611350565b5b60006113b48482850161137b565b91505092915050565b6113c68161135a565b82525050565b60006020820190506113e160008301846113bd565b92915050565b600081519050919050565b600082825260208201905092915050565b60005b83811015611421578082015181840152602081019050611406565b60008484015250505050565b6000601f19601f8301169050919050565b6000611449826113e7565b61145381856113f2565b9350611463818560208601611403565b61146c8161142d565b840191505092915050565b60006020820190508181036000830152611491818461143e565b905092915050565b600080fd5b600080fd5b7f4e487b7100000000000000000000000000000000000000000000000000000000600052604160045260246000fd5b6114db8261142d565b810181811067ffffffffffffffff821117156114fa576114f96114a3565b5b80604052505050565b600061150d611346565b905061151982826114d2565b919050565b600067ffffffffffffffff821115611539576115386114a3565b5b6115428261142d565b9050602081019050919050565b82818337600083830152505050565b600061157161156c8461151e565b611503565b90508281526020810184848401111561158d5761158c61149e565b5b61159884828561154f565b509392505050565b600082601f8301126115b5576115b4611499565b5b81356115c584826020860161155e565b91505092915050565b600080600080600060a086880312156115ea576115e9611350565b5b600086013567ffffffffffffffff81111561160857611607611355565b5b611614888289016115a0565b955050602086013567ffffffffffffffff81111561163557611634611355565b5b611641888289016115a0565b945050604086013567ffffffffffffffff81111561166257611661611355565b5b61166e888289016115a0565b935050606086013567ffffffffffffffff81111561168f5761168e611355565b5b61169b888289016115a0565b925050608086013567ffffffffffffffff8111156116bc576116bb611355565b5b6116c8888289016115a0565b9150509295509295909350565b600080604083850312156116ec576116eb611350565b5b600083013567ffffffffffffffff81111561170a57611709611355565b5b611716858286016115a0565b925050602083013567ffffffffffffffff81111561173757611736611355565b5b611743858286016115a0565b9150509250929050565b60008115159050919050565b6117628161174d565b811461176d57600080fd5b50565b60008135905061177f81611759565b92915050565b600073ffffffffffffffffffffffffffffffffffffffff82169050919050565b60006117b082611785565b9050919050565b6117c0816117a5565b81146117cb57600080fd5b50565b6000813590506117dd816117b7565b92915050565b600080604083850312156117fa576117f9611350565b5b600061180885828601611770565b9250506020611819858286016117ce565b9150509250929050565b60006020828403121561183957611838611350565b5b6000611847848285016117ce565b91505092915050565b611859816117a5565b82525050565b6118688161174d565b82525050565b600060c0820190506118836000830189611850565b8181036020830152611895818861143e565b905081810360408301526118a9818761143e565b90506118b8606083018661185f565b6118c5608083018561185f565b6118d260a083018461185f565b979650505050505050565b60006080820190506118f260008301876113bd565b8181036020830152611904818661143e565b90508181036040830152611918818561143e565b905061192760608301846113bd565b95945050505050565b60006020820190506119456000830184611850565b92915050565b6000602082019050611960600083018461185f565b92915050565b7f596f7520616c726561647920766f7465642e0000000000000000000000000000600082015250565b600061199c6012836113f2565b91506119a782611966565b602082019050919050565b600060208201905081810360008301526119cb8161198f565b9050919050565b7f4e487b7100000000000000000000000000000000000000000000000000000000600052601160045260246000fd5b6000611a0c8261135a565b9150611a178361135a565b9250828201905080821115611a2f57611a2e6119d2565b5b92915050565b7f4e487b7100000000000000000000000000000000000000000000000000000000600052602260045260246000fd5b60006002820490506001821680611a7c57607f821691505b602082108103611a8f57611a8e611a35565b5b50919050565b60008190508160005260206000209050919050565b60006020601f8301049050919050565b600082821b905092915050565b600060088302611af77fffffffffffffffffffffffffffffffffffffffffffffffffffffffffffffffff82611aba565b611b018683611aba565b95508019841693508086168417925050509392505050565b6000819050919050565b6000611b3e611b39611b348461135a565b611b19565b61135a565b9050919050565b6000819050919050565b611b5883611b23565b611b6c611b6482611b45565b848454611ac7565b825550505050565b600090565b611b81611b74565b611b8c818484611b4f565b505050565b5b81811015611bb057611ba5600082611b79565b600181019050611b92565b5050565b601f821115611bf557611bc681611a95565b611bcf84611aaa565b81016020851015611bde578190505b611bf2611bea85611aaa565b830182611b91565b50505b505050565b600082821c905092915050565b6000611c1860001984600802611bfa565b1980831691505092915050565b6000611c318383611c07565b9150826002028217905092915050565b611c4a826113e7565b67ffffffffffffffff811115611c6357611c626114a3565b5b611c6d8254611a64565b611c78828285611bb4565b600060209050601f831160018114611cab5760008415611c99578287015190505b611ca38582611c25565b865550611d0b565b601f198416611cb986611a95565b60005b82811015611ce157848901518255600182019150602085019450602081019050611cbc565b86831015611cfe5784890151611cfa601f891682611c07565b8355505b6001600288020188555050505b505050505050565b6000611d1e8261135a565b91507fffffffffffffffffffffffffffffffffffffffffffffffffffffffffffffffff8203611d5057611d4f6119d2565b5b600182019050919050565b7f456c656374696f6e2063616e6e6f7420656e64207769746820657175616c207660008201527f6f746520636f756e742e00000000000000000000000000000000000000000000602082015250565b6000611db7602a836113f2565b9150611dc282611d5b565b604082019050919050565b60006020820190508181036000830152611de681611daa565b905091905056fea2646970667358221220f64d03010e39a6738a66a0b033b9ed0364bd34f0431fcd0f9619d988b70fbbaa64736f6c63430008130033",
  "immutableReferences": {},
  "source": "// SPDX-License-Identifier: MIT\r\npragma solidity ^0.8.9;\r\n\r\ncontract Election {\r\n    address public admin;\r\n    uint256 candidateCount;\r\n    uint256 voterCount;\r\n    bool start;\r\n    bool end;\r\n\r\n    constructor() {\r\n        // Initilizing default values\r\n        admin = msg.sender;\r\n        candidateCount = 0;\r\n        voterCount = 0;\r\n        start = false;\r\n        end = false;\r\n    }\r\n\r\n    function getAdmin() public view returns (address) {\r\n        // Returns account address used to deploy contract (i.e. admin)\r\n        return admin;\r\n    }\r\n\r\n    modifier onlyAdmin() {\r\n        // Modifier for only admin access\r\n        require(msg.sender == admin);\r\n        _;\r\n    }\r\n    // Modeling a candidate\r\n    struct Candidate {\r\n        uint256 candidateId;\r\n        string header;\r\n        string slogan;\r\n        uint256 voteCount;\r\n    }\r\n    mapping(uint256 => Candidate) public candidateDetails;\r\n\r\n    // Adding new candidates\r\n    function addCandidate(\r\n        string memory _header,\r\n        string memory _slogan\r\n    )\r\n        public\r\n        // Only admin can add\r\n        onlyAdmin\r\n    {\r\n        Candidate memory newCandidate = Candidate({\r\n            candidateId: candidateCount,\r\n            header: _header,\r\n            slogan: _slogan,\r\n            voteCount: 0\r\n        });\r\n        candidateDetails[candidateCount] = newCandidate;\r\n        candidateCount += 1;\r\n    }\r\n\r\n    // Modeling a Election Details\r\n    struct ElectionDetails {\r\n        string adminName;\r\n        string adminEmail;\r\n        string adminTitle;\r\n        string electionTitle;\r\n        string organizationTitle;\r\n    }\r\n    ElectionDetails electionDetails;\r\n\r\n    function setElectionDetails(\r\n        string memory _adminName,\r\n        string memory _adminEmail,\r\n        string memory _adminTitle,\r\n        string memory _electionTitle,\r\n        string memory _organizationTitle\r\n    )\r\n        public\r\n        // Only admin can add\r\n        onlyAdmin\r\n    {\r\n        electionDetails = ElectionDetails(\r\n            _adminName,\r\n            _adminEmail,\r\n            _adminTitle,\r\n            _electionTitle,\r\n            _organizationTitle\r\n        );\r\n        start = true;\r\n        end = false;\r\n    }\r\n\r\n    // Get Elections details\r\n    function getAdminName() public view returns (string memory) {\r\n        return electionDetails.adminName;\r\n    }\r\n\r\n    function getAdminEmail() public view returns (string memory) {\r\n        return electionDetails.adminEmail;\r\n    }\r\n\r\n    function getAdminTitle() public view returns (string memory) {\r\n        return electionDetails.adminTitle;\r\n    }\r\n\r\n    function getElectionTitle() public view returns (string memory) {\r\n        return electionDetails.electionTitle;\r\n    }\r\n\r\n    function getOrganizationTitle() public view returns (string memory) {\r\n        return electionDetails.organizationTitle;\r\n    }\r\n\r\n    // Get candidates count\r\n    function getTotalCandidate() public view returns (uint256) {\r\n        // Returns total number of candidates\r\n        return candidateCount;\r\n    }\r\n\r\n    // Get voters count\r\n    function getTotalVoter() public view returns (uint256) {\r\n        // Returns total number of voters\r\n        return voterCount;\r\n    }\r\n\r\n    // Modeling a voter\r\n    struct Voter {\r\n        address voterAddress;\r\n        string name;\r\n        string phone;\r\n        bool isVerified;\r\n        bool hasVoted;\r\n        bool isRegistered;\r\n    }\r\n    address[] public voters; // Array of address to store address of voters\r\n    mapping(address => Voter) public voterDetails;\r\n\r\n    // Request to be added as voter\r\n    function registerAsVoter(string memory _name, string memory _phone) public {\r\n        Voter memory newVoter = Voter({\r\n            voterAddress: msg.sender,\r\n            name: _name,\r\n            phone: _phone,\r\n            hasVoted: false,\r\n            isVerified: false,\r\n            isRegistered: true\r\n        });\r\n        voterDetails[msg.sender] = newVoter;\r\n        voters.push(msg.sender);\r\n        voterCount += 1;\r\n    }\r\n\r\n    // Verify voter\r\n    function verifyVoter(\r\n        bool _verifedStatus,\r\n        address voterAddress\r\n    )\r\n        public\r\n        // Only admin can verify\r\n        onlyAdmin\r\n    {\r\n        voterDetails[voterAddress].isVerified = _verifedStatus;\r\n    }\r\n\r\n    mapping(address => bool) public voted;\r\n\r\n    // Vote\r\n    function vote(uint256 candidateId) public {\r\n        require(!voted[msg.sender], \"You already voted.\");\r\n        require(voterDetails[msg.sender].hasVoted == false);\r\n        require(voterDetails[msg.sender].isVerified == true);\r\n        require(start == true);\r\n        require(end == false);\r\n        candidateDetails[candidateId].voteCount += 1;\r\n        voterDetails[msg.sender].hasVoted = true;\r\n        voted[msg.sender] = true;\r\n    }\r\n\r\n    // End election\r\n    function endElection() public onlyAdmin {\r\n        uint maxVotes = 0;\r\n        uint maxVotesId = 0;\r\n        for (uint i = 0; i < candidateCount; i++) {\r\n            if (candidateDetails[i].voteCount > maxVotes) {\r\n                maxVotes = candidateDetails[i].voteCount;\r\n                maxVotesId = i;\r\n            }\r\n        }\r\n\r\n        uint equalVotes = 0;\r\n        for (uint i = 0; i < candidateCount; i++) {\r\n            if (candidateDetails[i].voteCount == maxVotes) {\r\n                equalVotes++;\r\n            }\r\n        }\r\n\r\n        require(equalVotes == 1, \"Election cannot end with equal vote count.\");\r\n\r\n        end = true;\r\n        start = false;\r\n    }\r\n\r\n    // Get election start and end values\r\n    function getStart() public view returns (bool) {\r\n        return start;\r\n    }\r\n\r\n    function getEnd() public view returns (bool) {\r\n        return end;\r\n    }\r\n}\r\n",
  "sourcePath": "D:\\Project\\polygon-voting\\contracts\\Election.sol",
  "compiler": {
    "name": "solc",
    "version": "0.8.19+commit.7dd6d404.Emscripten.clang"
  },
  "schemaVersion": "3.4.10",
  "updatedAt": "2023-04-27T02:54:33.549Z",
  "networkType": "ethereum",
  "devdoc": {
    "kind": "dev",
    "methods": {},
    "version": 1
  },
  "userdoc": {
    "kind": "user",
    "methods": {},
    "version": 1
  }
}