{
  "contractName": "Election",
  "abi": [
    {
      "inputs": [],
      "stateMutability": "nonpayable",
      "type": "constructor"
    },
    {
      "inputs": [],
      "name": "admin",
      "outputs": [
        {
          "internalType": "address",
          "name": "",
          "type": "address"
        }
      ],
      "stateMutability": "view",
      "type": "function",
      "constant": true
    },
    {
      "inputs": [
        {
          "internalType": "uint256",
          "name": "",
          "type": "uint256"
        }
      ],
      "name": "candidateDetails",
      "outputs": [
        {
          "internalType": "uint256",
          "name": "candidateId",
          "type": "uint256"
        },
        {
          "internalType": "string",
          "name": "header",
          "type": "string"
        },
        {
          "internalType": "string",
          "name": "slogan",
          "type": "string"
        },
        {
          "internalType": "uint256",
          "name": "voteCount",
          "type": "uint256"
        }
      ],
      "stateMutability": "view",
      "type": "function",
      "constant": true
    },
    {
      "inputs": [
        {
          "internalType": "address",
          "name": "",
          "type": "address"
        }
      ],
      "name": "voted",
      "outputs": [
        {
          "internalType": "bool",
          "name": "",
          "type": "bool"
        }
      ],
      "stateMutability": "view",
      "type": "function",
      "constant": true
    },
    {
      "inputs": [
        {
          "internalType": "address",
          "name": "",
          "type": "address"
        }
      ],
      "name": "voterDetails",
      "outputs": [
        {
          "internalType": "address",
          "name": "voterAddress",
          "type": "address"
        },
        {
          "internalType": "string",
          "name": "name",
          "type": "string"
        },
        {
          "internalType": "string",
          "name": "phone",
          "type": "string"
        },
        {
          "internalType": "bool",
          "name": "isVerified",
          "type": "bool"
        },
        {
          "internalType": "bool",
          "name": "hasVoted",
          "type": "bool"
        },
        {
          "internalType": "bool",
          "name": "isRegistered",
          "type": "bool"
        }
      ],
      "stateMutability": "view",
      "type": "function",
      "constant": true
    },
    {
      "inputs": [
        {
          "internalType": "uint256",
          "name": "",
          "type": "uint256"
        }
      ],
      "name": "voters",
      "outputs": [
        {
          "internalType": "address",
          "name": "",
          "type": "address"
        }
      ],
      "stateMutability": "view",
      "type": "function",
      "constant": true
    },
    {
      "inputs": [],
      "name": "getAdmin",
      "outputs": [
        {
          "internalType": "address",
          "name": "",
          "type": "address"
        }
      ],
      "stateMutability": "view",
      "type": "function",
      "constant": true
    },
    {
      "inputs": [
        {
          "internalType": "string",
          "name": "_header",
          "type": "string"
        },
        {
          "internalType": "string",
          "name": "_slogan",
          "type": "string"
        }
      ],
      "name": "addCandidate",
      "outputs": [],
      "stateMutability": "nonpayable",
      "type": "function"
    },
    {
      "inputs": [
        {
          "internalType": "string",
          "name": "_adminName",
          "type": "string"
        },
        {
          "internalType": "string",
          "name": "_adminEmail",
          "type": "string"
        },
        {
          "internalType": "string",
          "name": "_adminTitle",
          "type": "string"
        },
        {
          "internalType": "string",
          "name": "_electionTitle",
          "type": "string"
        },
        {
          "internalType": "string",
          "name": "_organizationTitle",
          "type": "string"
        }
      ],
      "name": "setElectionDetails",
      "outputs": [],
      "stateMutability": "nonpayable",
      "type": "function"
    },
    {
      "inputs": [],
      "name": "getAdminName",
      "outputs": [
        {
          "internalType": "string",
          "name": "",
          "type": "string"
        }
      ],
      "stateMutability": "view",
      "type": "function",
      "constant": true
    },
    {
      "inputs": [],
      "name": "getAdminEmail",
      "outputs": [
        {
          "internalType": "string",
          "name": "",
          "type": "string"
        }
      ],
      "stateMutability": "view",
      "type": "function",
      "constant": true
    },
    {
      "inputs": [],
      "name": "getAdminTitle",
      "outputs": [
        {
          "internalType": "string",
          "name": "",
          "type": "string"
        }
      ],
      "stateMutability": "view",
      "type": "function",
      "constant": true
    },
    {
      "inputs": [],
      "name": "getElectionTitle",
      "outputs": [
        {
          "internalType": "string",
          "name": "",
          "type": "string"
        }
      ],
      "stateMutability": "view",
      "type": "function",
      "constant": true
    },
    {
      "inputs": [],
      "name": "getOrganizationTitle",
      "outputs": [
        {
          "internalType": "string",
          "name": "",
          "type": "string"
        }
      ],
      "stateMutability": "view",
      "type": "function",
      "constant": true
    },
    {
      "inputs": [],
      "name": "getTotalCandidate",
      "outputs": [
        {
          "internalType": "uint256",
          "name": "",
          "type": "uint256"
        }
      ],
      "stateMutability": "view",
      "type": "function",
      "constant": true
    },
    {
      "inputs": [],
      "name": "getTotalVoter",
      "outputs": [
        {
          "internalType": "uint256",
          "name": "",
          "type": "uint256"
        }
      ],
      "stateMutability": "view",
      "type": "function",
      "constant": true
    },
    {
      "inputs": [
        {
          "internalType": "string",
          "name": "_name",
          "type": "string"
        },
        {
          "internalType": "string",
          "name": "_phone",
          "type": "string"
        }
      ],
      "name": "registerAsVoter",
      "outputs": [],
      "stateMutability": "nonpayable",
      "type": "function"
    },
    {
      "inputs": [
        {
          "internalType": "bool",
          "name": "_verifedStatus",
          "type": "bool"
        },
        {
          "internalType": "address",
          "name": "voterAddress",
          "type": "address"
        }
      ],
      "name": "verifyVoter",
      "outputs": [],
      "stateMutability": "nonpayable",
      "type": "function"
    },
    {
      "inputs": [
        {
          "internalType": "uint256",
          "name": "candidateId",
          "type": "uint256"
        }
      ],
      "name": "vote",
      "outputs": [],
      "stateMutability": "nonpayable",
      "type": "function"
    },
    {
      "inputs": [],
      "name": "endElection",
      "outputs": [],
      "stateMutability": "nonpayable",
      "type": "function"
    },
    {
      "inputs": [],
      "name": "getStart",
      "outputs": [
        {
          "internalType": "bool",
          "name": "",
          "type": "bool"
        }
      ],
      "stateMutability": "view",
      "type": "function",
      "constant": true
    },
    {
      "inputs": [],
      "name": "getEnd",
      "outputs": [
        {
          "internalType": "bool",
          "name": "",
          "type": "bool"
        }
      ],
      "stateMutability": "view",
      "type": "function",
      "constant": true
    }
  ],
  "bytecode": "0x608060405234801561001057600080fd5b50600080546001600160a01b0319163317815560018190556002556003805461ffff1916905561111c806100456000396000f3fe608060405234801561001057600080fd5b50600436106101775760003560e01c806364d198a1116100d8578063be081b6f1161008c578063e173730c11610066578063e173730c146102e8578063f851a440146102f0578063fee0d19a1461030357600080fd5b8063be081b6f146102c2578063c5292c67146102ca578063da58c7d9146102d557600080fd5b8063831318f1116100bd578063831318f11461027b5780639f05a36d14610283578063aec2ccae1461029f57600080fd5b806364d198a11461024e5780636e9960c31461025657600080fd5b8063483431751161012f5780635938750d116101145780635938750d146101fe57806359f78468146102235780636247e5321461022b57600080fd5b806348343175146101e3578063506b8e0a146101eb57600080fd5b80630e2354cf116101605780630e2354cf146101a8578063253e74e2146101bd57806326541b56146101d057600080fd5b80630121b93f1461017c5780630b93400e14610191575b600080fd5b61018f61018a366004610c00565b610316565b005b6002545b6040519081526020015b60405180910390f35b6101b061044b565b60405161019f9190610c5f565b61018f6101cb366004610d1c565b6104e0565b61018f6101de366004610dee565b610598565b6101b061063a565b61018f6101f9366004610e6e565b61064c565b61021161020c366004610ea8565b61068e565b60405161019f96959493929190610ec3565b61018f6107e7565b61023e610239366004610c00565b610924565b60405161019f9493929190610f18565b600154610195565b6000546001600160a01b03165b6040516001600160a01b03909116815260200161019f565b6101b0610a5d565b600354610100900460ff165b604051901515815260200161019f565b61028f6102ad366004610ea8565b600c6020526000908152604090205460ff1681565b6101b0610a6f565b60035460ff1661028f565b6102636102e3366004610c00565b610a81565b6101b0610aab565b600054610263906001600160a01b031681565b61018f610311366004610dee565b610abd565b336000908152600c602052604090205460ff161561037b5760405162461bcd60e51b815260206004820152601260248201527f596f7520616c726561647920766f7465642e000000000000000000000000000060448201526064015b60405180910390fd5b336000908152600b6020526040902060030154610100900460ff16156103a057600080fd5b336000908152600b602052604090206003015460ff1615156001146103c457600080fd5b60035460ff1615156001146103d857600080fd5b600354610100900460ff16156103ed57600080fd5b600081815260046020526040812060030180546001929061040f908490610f6b565b9091555050336000908152600b60209081526040808320600301805461ff001916610100179055600c9091529020805460ff1916600117905550565b60606005600001805461045d90610f84565b80601f016020809104026020016040519081016040528092919081815260200182805461048990610f84565b80156104d65780601f106104ab576101008083540402835291602001916104d6565b820191906000526020600020905b8154815290600101906020018083116104b957829003601f168201915b5050505050905090565b6000546001600160a01b031633146104f757600080fd5b6040805160a08101825286815260208101869052908101849052606081018390526080810182905260058061052c888261100d565b5060208201516001820190610541908261100d565b5060408201516002820190610556908261100d565b506060820151600382019061056b908261100d565b5060808201516004820190610580908261100d565b50506003805461ffff19166001179055505050505050565b6000546001600160a01b031633146105af57600080fd5b6040805160808101825260018054808352602080840187815284860187905260006060860181905292835260049091529390208251815592519192839290918201906105fb908261100d565b5060408201516002820190610610908261100d565b506060820151816003015590505060018060008282546106309190610f6b565b9091555050505050565b60606005600401805461045d90610f84565b6000546001600160a01b0316331461066357600080fd5b6001600160a01b03166000908152600b60205260409020600301805460ff1916911515919091179055565b600b60205260009081526040902080546001820180546001600160a01b0390921692916106ba90610f84565b80601f01602080910402602001604051908101604052809291908181526020018280546106e690610f84565b80156107335780601f1061070857610100808354040283529160200191610733565b820191906000526020600020905b81548152906001019060200180831161071657829003601f168201915b50505050509080600201805461074890610f84565b80601f016020809104026020016040519081016040528092919081815260200182805461077490610f84565b80156107c15780601f10610796576101008083540402835291602001916107c1565b820191906000526020600020905b8154815290600101906020018083116107a457829003601f168201915b5050506003909301549192505060ff808216916101008104821691620100009091041686565b6000546001600160a01b031633146107fe57600080fd5b60008060005b6001548110156108515760008181526004602052604090206003015483101561083f5760008181526004602052604090206003015492509050805b80610849816110cd565b915050610804565b506000805b600154811015610899576000818152600460205260409020600301548490036108875781610883816110cd565b9250505b80610891816110cd565b915050610856565b50806001146109105760405162461bcd60e51b815260206004820152602a60248201527f456c656374696f6e2063616e6e6f7420656e64207769746820657175616c207660448201527f6f746520636f756e742e000000000000000000000000000000000000000000006064820152608401610372565b50506003805461ffff191661010017905550565b6004602052600090815260409020805460018201805491929161094690610f84565b80601f016020809104026020016040519081016040528092919081815260200182805461097290610f84565b80156109bf5780601f10610994576101008083540402835291602001916109bf565b820191906000526020600020905b8154815290600101906020018083116109a257829003601f168201915b5050505050908060020180546109d490610f84565b80601f0160208091040260200160405190810160405280929190818152602001828054610a0090610f84565b8015610a4d5780601f10610a2257610100808354040283529160200191610a4d565b820191906000526020600020905b815481529060010190602001808311610a3057829003601f168201915b5050505050908060030154905084565b60606005600101805461045d90610f84565b60606005600201805461045d90610f84565b600a8181548110610a9157600080fd5b6000918252602090912001546001600160a01b0316905081565b60606005600301805461045d90610f84565b6040805160c08101825233808252602080830186815283850186905260006060850181905260808501819052600160a08601819052938152600b9092529390208251815473ffffffffffffffffffffffffffffffffffffffff19166001600160a01b039091161781559251919283929091820190610b3b908261100d565b5060408201516002820190610b50908261100d565b50606082015160039091018054608084015160a0909401511515620100000262ff0000199415156101000261ff00199415159490941661ffff19909216919091179290921792909216179055600a80546001818101835560009283527fc65a7bb8d6351c1cf70c95a316cc6a92839c986682d98bc35f958f4883f9d2a8909101805473ffffffffffffffffffffffffffffffffffffffff1916331790556002805491929091610630908490610f6b565b600060208284031215610c1257600080fd5b5035919050565b6000815180845260005b81811015610c3f57602081850181015186830182015201610c23565b506000602082860101526020601f19601f83011685010191505092915050565b602081526000610c726020830184610c19565b9392505050565b634e487b7160e01b600052604160045260246000fd5b600082601f830112610ca057600080fd5b813567ffffffffffffffff80821115610cbb57610cbb610c79565b604051601f8301601f19908116603f01168101908282118183101715610ce357610ce3610c79565b81604052838152866020858801011115610cfc57600080fd5b836020870160208301376000602085830101528094505050505092915050565b600080600080600060a08688031215610d3457600080fd5b853567ffffffffffffffff80821115610d4c57600080fd5b610d5889838a01610c8f565b96506020880135915080821115610d6e57600080fd5b610d7a89838a01610c8f565b95506040880135915080821115610d9057600080fd5b610d9c89838a01610c8f565b94506060880135915080821115610db257600080fd5b610dbe89838a01610c8f565b93506080880135915080821115610dd457600080fd5b50610de188828901610c8f565b9150509295509295909350565b60008060408385031215610e0157600080fd5b823567ffffffffffffffff80821115610e1957600080fd5b610e2586838701610c8f565b93506020850135915080821115610e3b57600080fd5b50610e4885828601610c8f565b9150509250929050565b80356001600160a01b0381168114610e6957600080fd5b919050565b60008060408385031215610e8157600080fd5b82358015158114610e9157600080fd5b9150610e9f60208401610e52565b90509250929050565b600060208284031215610eba57600080fd5b610c7282610e52565b6001600160a01b038716815260c060208201526000610ee560c0830188610c19565b8281036040840152610ef78188610c19565b951515606084015250509115156080830152151560a0909101529392505050565b848152608060208201526000610f316080830186610c19565b8281036040840152610f438186610c19565b91505082606083015295945050505050565b634e487b7160e01b600052601160045260246000fd5b80820180821115610f7e57610f7e610f55565b92915050565b600181811c90821680610f9857607f821691505b602082108103610fb857634e487b7160e01b600052602260045260246000fd5b50919050565b601f82111561100857600081815260208120601f850160051c81016020861015610fe55750805b601f850160051c820191505b8181101561100457828155600101610ff1565b5050505b505050565b815167ffffffffffffffff81111561102757611027610c79565b61103b816110358454610f84565b84610fbe565b602080601f83116001811461107057600084156110585750858301515b600019600386901b1c1916600185901b178555611004565b600085815260208120601f198616915b8281101561109f57888601518255948401946001909101908401611080565b50858210156110bd5787850151600019600388901b60f8161c191681555b5050505050600190811b01905550565b6000600182016110df576110df610f55565b506001019056fea264697066735822122082dc43ab85fd802511282ca621c1999086a8f1de7d0ca2301ef4baf8c8701e8d64736f6c63430008130033",
  "immutableReferences": {},
  "source": "// SPDX-License-Identifier: MIT\r\npragma solidity ^0.8.9;\r\n\r\ncontract Election {\r\n    address public admin;\r\n    uint256 candidateCount;\r\n    uint256 voterCount;\r\n    bool start;\r\n    bool end;\r\n\r\n    constructor() {\r\n        // Initilizing default values\r\n        admin = msg.sender;\r\n        candidateCount = 0;\r\n        voterCount = 0;\r\n        start = false;\r\n        end = false;\r\n    }\r\n\r\n    function getAdmin() public view returns (address) {\r\n        // Returns account address used to deploy contract (i.e. admin)\r\n        return admin;\r\n    }\r\n\r\n    modifier onlyAdmin() {\r\n        // Modifier for only admin access\r\n        require(msg.sender == admin);\r\n        _;\r\n    }\r\n    // Modeling a candidate\r\n    struct Candidate {\r\n        uint256 candidateId;\r\n        string header;\r\n        string slogan;\r\n        uint256 voteCount;\r\n    }\r\n    mapping(uint256 => Candidate) public candidateDetails;\r\n\r\n    // Adding new candidates\r\n    function addCandidate(\r\n        string memory _header,\r\n        string memory _slogan\r\n    )\r\n        public\r\n        // Only admin can add\r\n        onlyAdmin\r\n    {\r\n        Candidate memory newCandidate = Candidate({\r\n            candidateId: candidateCount,\r\n            header: _header,\r\n            slogan: _slogan,\r\n            voteCount: 0\r\n        });\r\n        candidateDetails[candidateCount] = newCandidate;\r\n        candidateCount += 1;\r\n    }\r\n\r\n    // Modeling a Election Details\r\n    struct ElectionDetails {\r\n        string adminName;\r\n        string adminEmail;\r\n        string adminTitle;\r\n        string electionTitle;\r\n        string organizationTitle;\r\n    }\r\n    ElectionDetails electionDetails;\r\n\r\n    function setElectionDetails(\r\n        string memory _adminName,\r\n        string memory _adminEmail,\r\n        string memory _adminTitle,\r\n        string memory _electionTitle,\r\n        string memory _organizationTitle\r\n    )\r\n        public\r\n        // Only admin can add\r\n        onlyAdmin\r\n    {\r\n        electionDetails = ElectionDetails(\r\n            _adminName,\r\n            _adminEmail,\r\n            _adminTitle,\r\n            _electionTitle,\r\n            _organizationTitle\r\n        );\r\n        start = true;\r\n        end = false;\r\n    }\r\n\r\n    // Get Elections details\r\n    function getAdminName() public view returns (string memory) {\r\n        return electionDetails.adminName;\r\n    }\r\n\r\n    function getAdminEmail() public view returns (string memory) {\r\n        return electionDetails.adminEmail;\r\n    }\r\n\r\n    function getAdminTitle() public view returns (string memory) {\r\n        return electionDetails.adminTitle;\r\n    }\r\n\r\n    function getElectionTitle() public view returns (string memory) {\r\n        return electionDetails.electionTitle;\r\n    }\r\n\r\n    function getOrganizationTitle() public view returns (string memory) {\r\n        return electionDetails.organizationTitle;\r\n    }\r\n\r\n    // Get candidates count\r\n    function getTotalCandidate() public view returns (uint256) {\r\n        // Returns total number of candidates\r\n        return candidateCount;\r\n    }\r\n\r\n    // Get voters count\r\n    function getTotalVoter() public view returns (uint256) {\r\n        // Returns total number of voters\r\n        return voterCount;\r\n    }\r\n\r\n    // Modeling a voter\r\n    struct Voter {\r\n        address voterAddress;\r\n        string name;\r\n        string phone;\r\n        bool isVerified;\r\n        bool hasVoted;\r\n        bool isRegistered;\r\n    }\r\n    address[] public voters; // Array of address to store address of voters\r\n    mapping(address => Voter) public voterDetails;\r\n\r\n    // Request to be added as voter\r\n    function registerAsVoter(string memory _name, string memory _phone) public {\r\n        Voter memory newVoter = Voter({\r\n            voterAddress: msg.sender,\r\n            name: _name,\r\n            phone: _phone,\r\n            hasVoted: false,\r\n            isVerified: false,\r\n            isRegistered: true\r\n        });\r\n        voterDetails[msg.sender] = newVoter;\r\n        voters.push(msg.sender);\r\n        voterCount += 1;\r\n    }\r\n\r\n    // Verify voter\r\n    function verifyVoter(\r\n        bool _verifedStatus,\r\n        address voterAddress\r\n    )\r\n        public\r\n        // Only admin can verify\r\n        onlyAdmin\r\n    {\r\n        voterDetails[voterAddress].isVerified = _verifedStatus;\r\n    }\r\n\r\n    mapping(address => bool) public voted;\r\n\r\n    // Vote\r\n    function vote(uint256 candidateId) public {\r\n        require(!voted[msg.sender], \"You already voted.\");\r\n        require(voterDetails[msg.sender].hasVoted == false);\r\n        require(voterDetails[msg.sender].isVerified == true);\r\n        require(start == true);\r\n        require(end == false);\r\n        candidateDetails[candidateId].voteCount += 1;\r\n        voterDetails[msg.sender].hasVoted = true;\r\n        voted[msg.sender] = true;\r\n    }\r\n\r\n    // End election\r\n    function endElection() public onlyAdmin {\r\n        uint maxVotes = 0;\r\n        uint maxVotesId = 0;\r\n        for (uint i = 0; i < candidateCount; i++) {\r\n            if (candidateDetails[i].voteCount > maxVotes) {\r\n                maxVotes = candidateDetails[i].voteCount;\r\n                maxVotesId = i;\r\n            }\r\n        }\r\n\r\n        uint equalVotes = 0;\r\n        for (uint i = 0; i < candidateCount; i++) {\r\n            if (candidateDetails[i].voteCount == maxVotes) {\r\n                equalVotes++;\r\n            }\r\n        }\r\n\r\n        require(equalVotes == 1, \"Election cannot end with equal vote count.\");\r\n\r\n        end = true;\r\n        start = false;\r\n    }\r\n\r\n    // Get election start and end values\r\n    function getStart() public view returns (bool) {\r\n        return start;\r\n    }\r\n\r\n    function getEnd() public view returns (bool) {\r\n        return end;\r\n    }\r\n}\r\n",
  "sourcePath": "D:\\Project\\polygon-voting\\arbitum\\contracts\\ethereum\\Election.sol",
  "compiler": {
    "name": "solc",
    "version": "0.8.19+commit.7dd6d404.Emscripten.clang"
  },
  "schemaVersion": "3.4.10",
  "updatedAt": "2023-02-26T04:15:23.189Z",
  "networkType": "ethereum",
  "devdoc": {
    "kind": "dev",
    "methods": {},
    "version": 1
  },
  "userdoc": {
    "kind": "user",
    "methods": {},
    "version": 1
  }
}