{
  "contractName": "PolyVote",
  "abi": [
    {
      "inputs": [],
      "stateMutability": "nonpayable",
      "type": "constructor"
    },
    {
      "anonymous": false,
      "inputs": [
        {
          "indexed": true,
          "internalType": "address",
          "name": "owner",
          "type": "address"
        },
        {
          "indexed": true,
          "internalType": "address",
          "name": "approved",
          "type": "address"
        },
        {
          "indexed": true,
          "internalType": "uint256",
          "name": "tokenId",
          "type": "uint256"
        }
      ],
      "name": "Approval",
      "type": "event"
    },
    {
      "anonymous": false,
      "inputs": [
        {
          "indexed": true,
          "internalType": "address",
          "name": "owner",
          "type": "address"
        },
        {
          "indexed": true,
          "internalType": "address",
          "name": "operator",
          "type": "address"
        },
        {
          "indexed": false,
          "internalType": "bool",
          "name": "approved",
          "type": "bool"
        }
      ],
      "name": "ApprovalForAll",
      "type": "event"
    },
    {
      "anonymous": false,
      "inputs": [
        {
          "indexed": true,
          "internalType": "address",
          "name": "previousOwner",
          "type": "address"
        },
        {
          "indexed": true,
          "internalType": "address",
          "name": "newOwner",
          "type": "address"
        }
      ],
      "name": "OwnershipTransferred",
      "type": "event"
    },
    {
      "anonymous": false,
      "inputs": [
        {
          "indexed": true,
          "internalType": "address",
          "name": "from",
          "type": "address"
        },
        {
          "indexed": true,
          "internalType": "address",
          "name": "to",
          "type": "address"
        },
        {
          "indexed": true,
          "internalType": "uint256",
          "name": "tokenId",
          "type": "uint256"
        }
      ],
      "name": "Transfer",
      "type": "event"
    },
    {
      "inputs": [
        {
          "internalType": "address",
          "name": "to",
          "type": "address"
        },
        {
          "internalType": "uint256",
          "name": "tokenId",
          "type": "uint256"
        }
      ],
      "name": "approve",
      "outputs": [],
      "stateMutability": "nonpayable",
      "type": "function"
    },
    {
      "inputs": [
        {
          "internalType": "address",
          "name": "owner",
          "type": "address"
        }
      ],
      "name": "balanceOf",
      "outputs": [
        {
          "internalType": "uint256",
          "name": "",
          "type": "uint256"
        }
      ],
      "stateMutability": "view",
      "type": "function",
      "constant": true
    },
    {
      "inputs": [
        {
          "internalType": "uint256",
          "name": "tokenId",
          "type": "uint256"
        }
      ],
      "name": "getApproved",
      "outputs": [
        {
          "internalType": "address",
          "name": "",
          "type": "address"
        }
      ],
      "stateMutability": "view",
      "type": "function",
      "constant": true
    },
    {
      "inputs": [
        {
          "internalType": "address",
          "name": "owner",
          "type": "address"
        },
        {
          "internalType": "address",
          "name": "operator",
          "type": "address"
        }
      ],
      "name": "isApprovedForAll",
      "outputs": [
        {
          "internalType": "bool",
          "name": "",
          "type": "bool"
        }
      ],
      "stateMutability": "view",
      "type": "function",
      "constant": true
    },
    {
      "inputs": [],
      "name": "name",
      "outputs": [
        {
          "internalType": "string",
          "name": "",
          "type": "string"
        }
      ],
      "stateMutability": "view",
      "type": "function",
      "constant": true
    },
    {
      "inputs": [],
      "name": "owner",
      "outputs": [
        {
          "internalType": "address",
          "name": "",
          "type": "address"
        }
      ],
      "stateMutability": "view",
      "type": "function",
      "constant": true
    },
    {
      "inputs": [
        {
          "internalType": "uint256",
          "name": "tokenId",
          "type": "uint256"
        }
      ],
      "name": "ownerOf",
      "outputs": [
        {
          "internalType": "address",
          "name": "",
          "type": "address"
        }
      ],
      "stateMutability": "view",
      "type": "function",
      "constant": true
    },
    {
      "inputs": [],
      "name": "renounceOwnership",
      "outputs": [],
      "stateMutability": "nonpayable",
      "type": "function"
    },
    {
      "inputs": [
        {
          "internalType": "address",
          "name": "from",
          "type": "address"
        },
        {
          "internalType": "address",
          "name": "to",
          "type": "address"
        },
        {
          "internalType": "uint256",
          "name": "tokenId",
          "type": "uint256"
        }
      ],
      "name": "safeTransferFrom",
      "outputs": [],
      "stateMutability": "nonpayable",
      "type": "function"
    },
    {
      "inputs": [
        {
          "internalType": "address",
          "name": "from",
          "type": "address"
        },
        {
          "internalType": "address",
          "name": "to",
          "type": "address"
        },
        {
          "internalType": "uint256",
          "name": "tokenId",
          "type": "uint256"
        },
        {
          "internalType": "bytes",
          "name": "data",
          "type": "bytes"
        }
      ],
      "name": "safeTransferFrom",
      "outputs": [],
      "stateMutability": "nonpayable",
      "type": "function"
    },
    {
      "inputs": [
        {
          "internalType": "address",
          "name": "operator",
          "type": "address"
        },
        {
          "internalType": "bool",
          "name": "approved",
          "type": "bool"
        }
      ],
      "name": "setApprovalForAll",
      "outputs": [],
      "stateMutability": "nonpayable",
      "type": "function"
    },
    {
      "inputs": [],
      "name": "symbol",
      "outputs": [
        {
          "internalType": "string",
          "name": "",
          "type": "string"
        }
      ],
      "stateMutability": "view",
      "type": "function",
      "constant": true
    },
    {
      "inputs": [
        {
          "internalType": "uint256",
          "name": "index",
          "type": "uint256"
        }
      ],
      "name": "tokenByIndex",
      "outputs": [
        {
          "internalType": "uint256",
          "name": "",
          "type": "uint256"
        }
      ],
      "stateMutability": "view",
      "type": "function",
      "constant": true
    },
    {
      "inputs": [
        {
          "internalType": "address",
          "name": "owner",
          "type": "address"
        },
        {
          "internalType": "uint256",
          "name": "index",
          "type": "uint256"
        }
      ],
      "name": "tokenOfOwnerByIndex",
      "outputs": [
        {
          "internalType": "uint256",
          "name": "",
          "type": "uint256"
        }
      ],
      "stateMutability": "view",
      "type": "function",
      "constant": true
    },
    {
      "inputs": [],
      "name": "totalSupply",
      "outputs": [
        {
          "internalType": "uint256",
          "name": "",
          "type": "uint256"
        }
      ],
      "stateMutability": "view",
      "type": "function",
      "constant": true
    },
    {
      "inputs": [
        {
          "internalType": "address",
          "name": "from",
          "type": "address"
        },
        {
          "internalType": "address",
          "name": "to",
          "type": "address"
        },
        {
          "internalType": "uint256",
          "name": "tokenId",
          "type": "uint256"
        }
      ],
      "name": "transferFrom",
      "outputs": [],
      "stateMutability": "nonpayable",
      "type": "function"
    },
    {
      "inputs": [
        {
          "internalType": "address",
          "name": "newOwner",
          "type": "address"
        }
      ],
      "name": "transferOwnership",
      "outputs": [],
      "stateMutability": "nonpayable",
      "type": "function"
    },
    {
      "inputs": [
        {
          "internalType": "address",
          "name": "_newUser",
          "type": "address"
        }
      ],
      "name": "addWhiteList",
      "outputs": [],
      "stateMutability": "nonpayable",
      "type": "function"
    },
    {
      "inputs": [
        {
          "internalType": "address",
          "name": "_newUser",
          "type": "address"
        }
      ],
      "name": "removeWhiteList",
      "outputs": [],
      "stateMutability": "nonpayable",
      "type": "function"
    },
    {
      "inputs": [],
      "name": "check",
      "outputs": [
        {
          "internalType": "string",
          "name": "",
          "type": "string"
        }
      ],
      "stateMutability": "view",
      "type": "function",
      "constant": true
    },
    {
      "inputs": [
        {
          "internalType": "address",
          "name": "to",
          "type": "address"
        },
        {
          "internalType": "string",
          "name": "uri",
          "type": "string"
        }
      ],
      "name": "safeMint",
      "outputs": [],
      "stateMutability": "nonpayable",
      "type": "function"
    },
    {
      "inputs": [
        {
          "internalType": "uint256",
          "name": "tokenId",
          "type": "uint256"
        }
      ],
      "name": "tokenURI",
      "outputs": [
        {
          "internalType": "string",
          "name": "",
          "type": "string"
        }
      ],
      "stateMutability": "view",
      "type": "function",
      "constant": true
    },
    {
      "inputs": [
        {
          "internalType": "bytes4",
          "name": "interfaceId",
          "type": "bytes4"
        }
      ],
      "name": "supportsInterface",
      "outputs": [
        {
          "internalType": "bool",
          "name": "",
          "type": "bool"
        }
      ],
      "stateMutability": "view",
      "type": "function",
      "constant": true
    }
  ],
  "bytecode": "0x6080604052612710600f553480156200001757600080fd5b5060405180604001604052806008815260200167506f6c79566f746560c01b8152506040518060400160405280600381526020016214159560ea1b8152508160009081620000669190620001a2565b506001620000758282620001a2565b505050620000926200008c620000a760201b60201c565b620000ab565b620000a1600e80546001019055565b6200026e565b3390565b600b80546001600160a01b038381166001600160a01b0319831681179093556040519116919082907f8be0079c531659141344cd1fd0a4f28419497f9722a3daafe3b4186f6b6457e090600090a35050565b634e487b7160e01b600052604160045260246000fd5b600181811c908216806200012857607f821691505b6020821081036200014957634e487b7160e01b600052602260045260246000fd5b50919050565b601f8211156200019d57600081815260208120601f850160051c81016020861015620001785750805b601f850160051c820191505b81811015620001995782815560010162000184565b5050505b505050565b81516001600160401b03811115620001be57620001be620000fd565b620001d681620001cf845462000113565b846200014f565b602080601f8311600181146200020e5760008415620001f55750858301515b600019600386901b1c1916600185901b17855562000199565b600085815260208120601f198616915b828110156200023f578886015182559484019460019091019084016200021e565b50858210156200025e5787850151600019600388901b60f8161c191681555b5050505050600190811b01905550565b612171806200027e6000396000f3fe608060405234801561001057600080fd5b506004361061018d5760003560e01c806370a08231116100e3578063b88d4fde1161008c578063e7cd4a0411610066578063e7cd4a041461031b578063e985e9c51461032e578063f2fde38b1461036a57600080fd5b8063b88d4fde146102e2578063c87b56dd146102f5578063d204c45e1461030857600080fd5b8063919840ad116100bd578063919840ad146102bf57806395d89b41146102c7578063a22cb465146102cf57600080fd5b806370a0823114610293578063715018a6146102a65780638da5cb5b146102ae57600080fd5b80632042e5c21161014557806342842e0e1161011f57806342842e0e1461025a5780634f6ccce71461026d5780636352211e1461028057600080fd5b80632042e5c21461022157806323b872dd146102345780632f745c591461024757600080fd5b8063081812fc11610176578063081812fc146101cf578063095ea7b3146101fa57806318160ddd1461020f57600080fd5b806301ffc9a71461019257806306fdde03146101ba575b600080fd5b6101a56101a0366004611bf4565b61037d565b60405190151581526020015b60405180910390f35b6101c261038e565b6040516101b19190611c61565b6101e26101dd366004611c74565b610420565b6040516001600160a01b0390911681526020016101b1565b61020d610208366004611ca9565b610447565b005b6008545b6040519081526020016101b1565b61020d61022f366004611cd3565b610561565b61020d610242366004611cee565b61058a565b610213610255366004611ca9565b610601565b61020d610268366004611cee565b6106a9565b61021361027b366004611c74565b6106c4565b6101e261028e366004611c74565b610768565b6102136102a1366004611cd3565b6107cd565b61020d610867565b600b546001600160a01b03166101e2565b6101c261087b565b6101c261090a565b61020d6102dd366004611d2a565b610919565b61020d6102f0366004611df2565b610928565b6101c2610303366004611c74565b6109a6565b61020d610316366004611e6e565b6109b1565b61020d610329366004611cd3565b610aee565b6101a561033c366004611ed0565b6001600160a01b03918216600090815260056020908152604080832093909416825291909152205460ff1690565b61020d610378366004611cd3565b610b1a565b600061038882610baa565b92915050565b60606000805461039d90611f03565b80601f01602080910402602001604051908101604052809291908181526020018280546103c990611f03565b80156104165780601f106103eb57610100808354040283529160200191610416565b820191906000526020600020905b8154815290600101906020018083116103f957829003601f168201915b5050505050905090565b600061042b82610bcf565b506000908152600460205260409020546001600160a01b031690565b600061045282610768565b9050806001600160a01b0316836001600160a01b0316036104c45760405162461bcd60e51b815260206004820152602160248201527f4552433732313a20617070726f76616c20746f2063757272656e74206f776e656044820152603960f91b60648201526084015b60405180910390fd5b336001600160a01b03821614806104e057506104e0813361033c565b6105525760405162461bcd60e51b815260206004820152603d60248201527f4552433732313a20617070726f76652063616c6c6572206973206e6f7420746f60448201527f6b656e206f776e6572206f7220617070726f76656420666f7220616c6c00000060648201526084016104bb565b61055c8383610c33565b505050565b610569610ca1565b6001600160a01b03166000908152600c60205260409020805460ff19169055565b6105943382610cfb565b6105f65760405162461bcd60e51b815260206004820152602d60248201527f4552433732313a2063616c6c6572206973206e6f7420746f6b656e206f776e6560448201526c1c881bdc88185c1c1c9bdd9959609a1b60648201526084016104bb565b61055c838383610d7a565b600061060c836107cd565b82106106805760405162461bcd60e51b815260206004820152602b60248201527f455243373231456e756d657261626c653a206f776e657220696e646578206f7560448201527f74206f6620626f756e647300000000000000000000000000000000000000000060648201526084016104bb565b506001600160a01b03919091166000908152600660209081526040808320938352929052205490565b61055c83838360405180602001604052806000815250610928565b60006106cf60085490565b82106107435760405162461bcd60e51b815260206004820152602c60248201527f455243373231456e756d657261626c653a20676c6f62616c20696e646578206f60448201527f7574206f6620626f756e6473000000000000000000000000000000000000000060648201526084016104bb565b6008828154811061075657610756611f3d565b90600052602060002001549050919050565b6000818152600260205260408120546001600160a01b0316806103885760405162461bcd60e51b815260206004820152601860248201527f4552433732313a20696e76616c696420746f6b656e204944000000000000000060448201526064016104bb565b60006001600160a01b03821661084b5760405162461bcd60e51b815260206004820152602960248201527f4552433732313a2061646472657373207a65726f206973206e6f74206120766160448201527f6c6964206f776e6572000000000000000000000000000000000000000000000060648201526084016104bb565b506001600160a01b031660009081526003602052604090205490565b61086f610ca1565b6108796000610f67565b565b336000908152600c602052604090205460609060ff1615156001036108d2575060408051808201909152601481527f796f7520617265206f6e2077686974656c697374000000000000000000000000602082015290565b5060408051808201909152601781527f796f7520617265206e6f742077686974656c6973746564000000000000000000602082015290565b60606001805461039d90611f03565b610924338383610fb9565b5050565b6109323383610cfb565b6109945760405162461bcd60e51b815260206004820152602d60248201527f4552433732313a2063616c6c6572206973206e6f7420746f6b656e206f776e6560448201526c1c881bdc88185c1c1c9bdd9959609a1b60648201526084016104bb565b6109a084848484611087565b50505050565b606061038882611105565b336000908152600c602052604090205460ff161515600114610a155760405162461bcd60e51b815260206004820152601b60248201527f55736572206e6f7420617574686f72697a656420746f206d696e74000000000060448201526064016104bb565b600f54600e541115610a695760405162461bcd60e51b815260206004820152601c60248201527f49276d20736f727279207765207265616368656420746865206361700000000060448201526064016104bb565b610a72336107cd565b15610abf5760405162461bcd60e51b815260206004820152601b60248201527f4d6178206d696e74207065722077616c6c65742072656163686564000000000060448201526064016104bb565b6000610aca600e5490565b9050610ada600e80546001019055565b610ae4838261120d565b61055c8183611227565b610af6610ca1565b6001600160a01b03166000908152600c60205260409020805460ff19166001179055565b610b22610ca1565b6001600160a01b038116610b9e5760405162461bcd60e51b815260206004820152602660248201527f4f776e61626c653a206e6577206f776e657220697320746865207a65726f206160448201527f646472657373000000000000000000000000000000000000000000000000000060648201526084016104bb565b610ba781610f67565b50565b60006001600160e01b0319821663780e9d6360e01b14806103885750610388826112c9565b6000818152600260205260409020546001600160a01b0316610ba75760405162461bcd60e51b815260206004820152601860248201527f4552433732313a20696e76616c696420746f6b656e204944000000000000000060448201526064016104bb565b600081815260046020526040902080546001600160a01b0319166001600160a01b0384169081179091558190610c6882610768565b6001600160a01b03167f8c5be1e5ebec7d5bd14f71427d1e84f3dd0314c0f7b2291e5b200ac8c7c3b92560405160405180910390a45050565b600b546001600160a01b031633146108795760405162461bcd60e51b815260206004820181905260248201527f4f776e61626c653a2063616c6c6572206973206e6f7420746865206f776e657260448201526064016104bb565b600080610d0783610768565b9050806001600160a01b0316846001600160a01b03161480610d4e57506001600160a01b0380821660009081526005602090815260408083209388168352929052205460ff165b80610d725750836001600160a01b0316610d6784610420565b6001600160a01b0316145b949350505050565b826001600160a01b0316610d8d82610768565b6001600160a01b031614610df15760405162461bcd60e51b815260206004820152602560248201527f4552433732313a207472616e736665722066726f6d20696e636f72726563742060448201526437bbb732b960d91b60648201526084016104bb565b6001600160a01b038216610e535760405162461bcd60e51b8152602060048201526024808201527f4552433732313a207472616e7366657220746f20746865207a65726f206164646044820152637265737360e01b60648201526084016104bb565b610e608383836001611319565b826001600160a01b0316610e7382610768565b6001600160a01b031614610ed75760405162461bcd60e51b815260206004820152602560248201527f4552433732313a207472616e736665722066726f6d20696e636f72726563742060448201526437bbb732b960d91b60648201526084016104bb565b600081815260046020908152604080832080546001600160a01b03199081169091556001600160a01b0387811680865260038552838620805460001901905590871680865283862080546001019055868652600290945282852080549092168417909155905184937fddf252ad1be2c89b69c2b068fc378daa952ba7f163c4a11628f55a4df523b3ef91a4505050565b600b80546001600160a01b038381166001600160a01b0319831681179093556040519116919082907f8be0079c531659141344cd1fd0a4f28419497f9722a3daafe3b4186f6b6457e090600090a35050565b816001600160a01b0316836001600160a01b03160361101a5760405162461bcd60e51b815260206004820152601960248201527f4552433732313a20617070726f766520746f2063616c6c65720000000000000060448201526064016104bb565b6001600160a01b03838116600081815260056020908152604080832094871680845294825291829020805460ff191686151590811790915591519182527f17307eab39ab6107e8899845ad3d59bd9653f200f220920489ca2b5937696c31910160405180910390a3505050565b611092848484610d7a565b61109e84848484611325565b6109a05760405162461bcd60e51b815260206004820152603260248201527f4552433732313a207472616e7366657220746f206e6f6e20455243373231526560448201527131b2b4bb32b91034b6b83632b6b2b73a32b960711b60648201526084016104bb565b606061111082610bcf565b6000828152600a60205260408120805461112990611f03565b80601f016020809104026020016040519081016040528092919081815260200182805461115590611f03565b80156111a25780601f10611177576101008083540402835291602001916111a2565b820191906000526020600020905b81548152906001019060200180831161118557829003601f168201915b5050505050905060006111c060408051602081019091526000815290565b905080516000036111d2575092915050565b8151156112045780826040516020016111ec929190611f53565b60405160208183030381529060405292505050919050565b610d7284611471565b6109248282604051806020016040528060008152506114e5565b6000828152600260205260409020546001600160a01b03166112b15760405162461bcd60e51b815260206004820152602e60248201527f45524337323155524953746f726167653a2055524920736574206f66206e6f6e60448201527f6578697374656e7420746f6b656e00000000000000000000000000000000000060648201526084016104bb565b6000828152600a6020526040902061055c8282611fd0565b60006001600160e01b031982166380ac58cd60e01b14806112fa57506001600160e01b03198216635b5e139f60e01b145b8061038857506301ffc9a760e01b6001600160e01b0319831614610388565b6109a084848484611563565b60006001600160a01b0384163b1561146657604051630a85bd0160e11b81526001600160a01b0385169063150b7a0290611369903390899088908890600401612090565b6020604051808303816000875af19250505080156113a4575060408051601f3d908101601f191682019092526113a1918101906120cc565b60015b61144c573d8080156113d2576040519150601f19603f3d011682016040523d82523d6000602084013e6113d7565b606091505b5080516000036114445760405162461bcd60e51b815260206004820152603260248201527f4552433732313a207472616e7366657220746f206e6f6e20455243373231526560448201527131b2b4bb32b91034b6b83632b6b2b73a32b960711b60648201526084016104bb565b805181602001fd5b6001600160e01b031916630a85bd0160e11b149050610d72565b506001949350505050565b606061147c82610bcf565b600061149360408051602081019091526000815290565b905060008151116114b357604051806020016040528060008152506114de565b806114bd846116ab565b6040516020016114ce929190611f53565b6040516020818303038152906040525b9392505050565b6114ef838361174b565b6114fc6000848484611325565b61055c5760405162461bcd60e51b815260206004820152603260248201527f4552433732313a207472616e7366657220746f206e6f6e20455243373231526560448201527131b2b4bb32b91034b6b83632b6b2b73a32b960711b60648201526084016104bb565b61156f848484846118e4565b60018111156115e65760405162461bcd60e51b815260206004820152603560248201527f455243373231456e756d657261626c653a20636f6e736563757469766520747260448201527f616e7366657273206e6f7420737570706f72746564000000000000000000000060648201526084016104bb565b816001600160a01b0385166116425761163d81600880546000838152600960205260408120829055600182018355919091527ff3f7a9fe364faab93b216da50a3214154f22a0a2b415b23a84c8169e8b636ee30155565b611665565b836001600160a01b0316856001600160a01b03161461166557611665858261196c565b6001600160a01b0384166116815761167c81611a09565b6116a4565b846001600160a01b0316846001600160a01b0316146116a4576116a48482611ab8565b5050505050565b606060006116b883611afc565b600101905060008167ffffffffffffffff8111156116d8576116d8611d66565b6040519080825280601f01601f191660200182016040528015611702576020820181803683370190505b5090508181016020015b600019017f3031323334353637383961626364656600000000000000000000000000000000600a86061a8153600a850494508461170c57509392505050565b6001600160a01b0382166117a15760405162461bcd60e51b815260206004820181905260248201527f4552433732313a206d696e7420746f20746865207a65726f206164647265737360448201526064016104bb565b6000818152600260205260409020546001600160a01b0316156118065760405162461bcd60e51b815260206004820152601c60248201527f4552433732313a20746f6b656e20616c7265616479206d696e7465640000000060448201526064016104bb565b611814600083836001611319565b6000818152600260205260409020546001600160a01b0316156118795760405162461bcd60e51b815260206004820152601c60248201527f4552433732313a20746f6b656e20616c7265616479206d696e7465640000000060448201526064016104bb565b6001600160a01b038216600081815260036020908152604080832080546001019055848352600290915280822080546001600160a01b0319168417905551839291907fddf252ad1be2c89b69c2b068fc378daa952ba7f163c4a11628f55a4df523b3ef908290a45050565b60018111156109a0576001600160a01b0384161561192a576001600160a01b038416600090815260036020526040812080548392906119249084906120ff565b90915550505b6001600160a01b038316156109a0576001600160a01b03831660009081526003602052604081208054839290611961908490612112565b909155505050505050565b60006001611979846107cd565b61198391906120ff565b6000838152600760205260409020549091508082146119d6576001600160a01b03841660009081526006602090815260408083208584528252808320548484528184208190558352600790915290208190555b5060009182526007602090815260408084208490556001600160a01b039094168352600681528383209183525290812055565b600854600090611a1b906001906120ff565b60008381526009602052604081205460088054939450909284908110611a4357611a43611f3d565b906000526020600020015490508060088381548110611a6457611a64611f3d565b6000918252602080832090910192909255828152600990915260408082208490558582528120556008805480611a9c57611a9c612125565b6001900381819060005260206000200160009055905550505050565b6000611ac3836107cd565b6001600160a01b039093166000908152600660209081526040808320868452825280832085905593825260079052919091209190915550565b6000807a184f03e93ff9f4daa797ed6e38ed64bf6a1f0100000000000000008310611b45577a184f03e93ff9f4daa797ed6e38ed64bf6a1f010000000000000000830492506040015b6d04ee2d6d415b85acef81000000008310611b71576d04ee2d6d415b85acef8100000000830492506020015b662386f26fc100008310611b8f57662386f26fc10000830492506010015b6305f5e1008310611ba7576305f5e100830492506008015b6127108310611bbb57612710830492506004015b60648310611bcd576064830492506002015b600a83106103885760010192915050565b6001600160e01b031981168114610ba757600080fd5b600060208284031215611c0657600080fd5b81356114de81611bde565b60005b83811015611c2c578181015183820152602001611c14565b50506000910152565b60008151808452611c4d816020860160208601611c11565b601f01601f19169290920160200192915050565b6020815260006114de6020830184611c35565b600060208284031215611c8657600080fd5b5035919050565b80356001600160a01b0381168114611ca457600080fd5b919050565b60008060408385031215611cbc57600080fd5b611cc583611c8d565b946020939093013593505050565b600060208284031215611ce557600080fd5b6114de82611c8d565b600080600060608486031215611d0357600080fd5b611d0c84611c8d565b9250611d1a60208501611c8d565b9150604084013590509250925092565b60008060408385031215611d3d57600080fd5b611d4683611c8d565b915060208301358015158114611d5b57600080fd5b809150509250929050565b634e487b7160e01b600052604160045260246000fd5b600067ffffffffffffffff80841115611d9757611d97611d66565b604051601f8501601f19908116603f01168101908282118183101715611dbf57611dbf611d66565b81604052809350858152868686011115611dd857600080fd5b858560208301376000602087830101525050509392505050565b60008060008060808587031215611e0857600080fd5b611e1185611c8d565b9350611e1f60208601611c8d565b925060408501359150606085013567ffffffffffffffff811115611e4257600080fd5b8501601f81018713611e5357600080fd5b611e6287823560208401611d7c565b91505092959194509250565b60008060408385031215611e8157600080fd5b611e8a83611c8d565b9150602083013567ffffffffffffffff811115611ea657600080fd5b8301601f81018513611eb757600080fd5b611ec685823560208401611d7c565b9150509250929050565b60008060408385031215611ee357600080fd5b611eec83611c8d565b9150611efa60208401611c8d565b90509250929050565b600181811c90821680611f1757607f821691505b602082108103611f3757634e487b7160e01b600052602260045260246000fd5b50919050565b634e487b7160e01b600052603260045260246000fd5b60008351611f65818460208801611c11565b835190830190611f79818360208801611c11565b01949350505050565b601f82111561055c57600081815260208120601f850160051c81016020861015611fa95750805b601f850160051c820191505b81811015611fc857828155600101611fb5565b505050505050565b815167ffffffffffffffff811115611fea57611fea611d66565b611ffe81611ff88454611f03565b84611f82565b602080601f831160018114612033576000841561201b5750858301515b600019600386901b1c1916600185901b178555611fc8565b600085815260208120601f198616915b8281101561206257888601518255948401946001909101908401612043565b50858210156120805787850151600019600388901b60f8161c191681555b5050505050600190811b01905550565b60006001600160a01b038087168352808616602084015250836040830152608060608301526120c26080830184611c35565b9695505050505050565b6000602082840312156120de57600080fd5b81516114de81611bde565b634e487b7160e01b600052601160045260246000fd5b81810381811115610388576103886120e9565b80820180821115610388576103886120e9565b634e487b7160e01b600052603160045260246000fdfea2646970667358221220f66f324d3546366230d5837ea0fcfb39695daeebd9b38d68b424226d7a13f15b64736f6c63430008130033",
  "immutableReferences": {},
  "source": "// SPDX-License-Identifier: MIT\r\npragma solidity ^0.8.9;\r\n\r\nimport \"@openzeppelin/contracts/token/ERC721/ERC721.sol\";\r\nimport \"@openzeppelin/contracts/token/ERC721/extensions/ERC721Enumerable.sol\";\r\nimport \"@openzeppelin/contracts/token/ERC721/extensions/ERC721URIStorage.sol\";\r\nimport \"@openzeppelin/contracts/access/Ownable.sol\";\r\nimport \"@openzeppelin/contracts/utils/Counters.sol\";\r\n\r\nimport \"./Election.sol\";\r\n\r\ncontract PolyVote is ERC721, ERC721Enumerable, ERC721URIStorage, Ownable {\r\n    using Counters for Counters.Counter;\r\n\r\n    mapping(address => bool) internal isWhiteListed;\r\n\r\n    Election private _election;\r\n\r\n    constructor() ERC721(\"PolyVote\", \"PVT\") {\r\n        _tokenIdCounter.increment();\r\n    }\r\n\r\n    // add remove whitelist\r\n    function addWhiteList(address _newUser) external onlyOwner {\r\n        isWhiteListed[_newUser] = true;\r\n    }\r\n\r\n    function removeWhiteList(address _newUser) external onlyOwner {\r\n        isWhiteListed[_newUser] = false;\r\n    }\r\n\r\n    //check status\r\n    function check() external view returns (string memory) {\r\n        if (isWhiteListed[msg.sender] == true) {\r\n            return \"you are on whitelist\";\r\n        } else {\r\n            return \"you are not whitelisted\";\r\n        }\r\n    }\r\n\r\n    Counters.Counter private _tokenIdCounter;\r\n    uint256 maxSupply = 10000;\r\n\r\n    function safeMint(address to, string memory uri) public {\r\n        // require(_election.getStart() == true);\r\n        require(\r\n            isWhiteListed[msg.sender] == true,\r\n            \"User not authorized to mint\"\r\n        );\r\n        require(\r\n            _tokenIdCounter.current() <= maxSupply,\r\n            \"I'm sorry we reached the cap\"\r\n        );\r\n        require(balanceOf(msg.sender) == 0, \"Max mint per wallet reached\");\r\n        uint256 tokenId = _tokenIdCounter.current();\r\n        _tokenIdCounter.increment();\r\n        _safeMint(to, tokenId);\r\n        _setTokenURI(tokenId, uri);\r\n    }\r\n\r\n    // The following functions are overrides required by Solidity.\r\n\r\n    function _beforeTokenTransfer(\r\n        address from,\r\n        address to,\r\n        uint256 tokenId,\r\n        uint256 batchSize\r\n    ) internal override(ERC721, ERC721Enumerable) {\r\n        super._beforeTokenTransfer(from, to, tokenId, batchSize);\r\n    }\r\n\r\n    function _burn(\r\n        uint256 tokenId\r\n    ) internal override(ERC721, ERC721URIStorage) {\r\n        super._burn(tokenId);\r\n    }\r\n\r\n    function tokenURI(\r\n        uint256 tokenId\r\n    ) public view override(ERC721, ERC721URIStorage) returns (string memory) {\r\n        return super.tokenURI(tokenId);\r\n    }\r\n\r\n    function supportsInterface(\r\n        bytes4 interfaceId\r\n    ) public view override(ERC721, ERC721Enumerable) returns (bool) {\r\n        return super.supportsInterface(interfaceId);\r\n    }\r\n}\r\n",
  "sourcePath": "D:\\Project\\polygon-voting\\arbitum\\contracts\\ethereum\\PolyVote.sol",
  "compiler": {
    "name": "solc",
    "version": "0.8.19+commit.7dd6d404.Emscripten.clang"
  },
  "schemaVersion": "3.4.10",
  "updatedAt": "2023-02-26T04:15:23.199Z",
  "networkType": "ethereum",
  "devdoc": {
    "events": {
      "Approval(address,address,uint256)": {
        "details": "Emitted when `owner` enables `approved` to manage the `tokenId` token."
      },
      "ApprovalForAll(address,address,bool)": {
        "details": "Emitted when `owner` enables or disables (`approved`) `operator` to manage all of its assets."
      },
      "Transfer(address,address,uint256)": {
        "details": "Emitted when `tokenId` token is transferred from `from` to `to`."
      }
    },
    "kind": "dev",
    "methods": {
      "approve(address,uint256)": {
        "details": "See {IERC721-approve}."
      },
      "balanceOf(address)": {
        "details": "See {IERC721-balanceOf}."
      },
      "getApproved(uint256)": {
        "details": "See {IERC721-getApproved}."
      },
      "isApprovedForAll(address,address)": {
        "details": "See {IERC721-isApprovedForAll}."
      },
      "name()": {
        "details": "See {IERC721Metadata-name}."
      },
      "owner()": {
        "details": "Returns the address of the current owner."
      },
      "ownerOf(uint256)": {
        "details": "See {IERC721-ownerOf}."
      },
      "renounceOwnership()": {
        "details": "Leaves the contract without owner. It will not be possible to call `onlyOwner` functions anymore. Can only be called by the current owner. NOTE: Renouncing ownership will leave the contract without an owner, thereby removing any functionality that is only available to the owner."
      },
      "safeTransferFrom(address,address,uint256)": {
        "details": "See {IERC721-safeTransferFrom}."
      },
      "safeTransferFrom(address,address,uint256,bytes)": {
        "details": "See {IERC721-safeTransferFrom}."
      },
      "setApprovalForAll(address,bool)": {
        "details": "See {IERC721-setApprovalForAll}."
      },
      "symbol()": {
        "details": "See {IERC721Metadata-symbol}."
      },
      "tokenByIndex(uint256)": {
        "details": "See {IERC721Enumerable-tokenByIndex}."
      },
      "tokenOfOwnerByIndex(address,uint256)": {
        "details": "See {IERC721Enumerable-tokenOfOwnerByIndex}."
      },
      "totalSupply()": {
        "details": "See {IERC721Enumerable-totalSupply}."
      },
      "transferFrom(address,address,uint256)": {
        "details": "See {IERC721-transferFrom}."
      },
      "transferOwnership(address)": {
        "details": "Transfers ownership of the contract to a new account (`newOwner`). Can only be called by the current owner."
      }
    },
    "version": 1
  },
  "userdoc": {
    "kind": "user",
    "methods": {},
    "version": 1
  }
}