{
  "contractName": "PolyVote",
  "abi": [
    {
      "inputs": [],
      "stateMutability": "nonpayable",
      "type": "constructor"
    },
    {
      "anonymous": false,
      "inputs": [
        {
          "indexed": true,
          "internalType": "address",
          "name": "owner",
          "type": "address"
        },
        {
          "indexed": true,
          "internalType": "address",
          "name": "approved",
          "type": "address"
        },
        {
          "indexed": true,
          "internalType": "uint256",
          "name": "tokenId",
          "type": "uint256"
        }
      ],
      "name": "Approval",
      "type": "event"
    },
    {
      "anonymous": false,
      "inputs": [
        {
          "indexed": true,
          "internalType": "address",
          "name": "owner",
          "type": "address"
        },
        {
          "indexed": true,
          "internalType": "address",
          "name": "operator",
          "type": "address"
        },
        {
          "indexed": false,
          "internalType": "bool",
          "name": "approved",
          "type": "bool"
        }
      ],
      "name": "ApprovalForAll",
      "type": "event"
    },
    {
      "anonymous": false,
      "inputs": [
        {
          "indexed": true,
          "internalType": "address",
          "name": "previousOwner",
          "type": "address"
        },
        {
          "indexed": true,
          "internalType": "address",
          "name": "newOwner",
          "type": "address"
        }
      ],
      "name": "OwnershipTransferred",
      "type": "event"
    },
    {
      "anonymous": false,
      "inputs": [
        {
          "indexed": true,
          "internalType": "address",
          "name": "from",
          "type": "address"
        },
        {
          "indexed": true,
          "internalType": "address",
          "name": "to",
          "type": "address"
        },
        {
          "indexed": true,
          "internalType": "uint256",
          "name": "tokenId",
          "type": "uint256"
        }
      ],
      "name": "Transfer",
      "type": "event"
    },
    {
      "inputs": [
        {
          "internalType": "address",
          "name": "to",
          "type": "address"
        },
        {
          "internalType": "uint256",
          "name": "tokenId",
          "type": "uint256"
        }
      ],
      "name": "approve",
      "outputs": [],
      "stateMutability": "nonpayable",
      "type": "function"
    },
    {
      "inputs": [
        {
          "internalType": "address",
          "name": "owner",
          "type": "address"
        }
      ],
      "name": "balanceOf",
      "outputs": [
        {
          "internalType": "uint256",
          "name": "",
          "type": "uint256"
        }
      ],
      "stateMutability": "view",
      "type": "function",
      "constant": true
    },
    {
      "inputs": [
        {
          "internalType": "uint256",
          "name": "tokenId",
          "type": "uint256"
        }
      ],
      "name": "getApproved",
      "outputs": [
        {
          "internalType": "address",
          "name": "",
          "type": "address"
        }
      ],
      "stateMutability": "view",
      "type": "function",
      "constant": true
    },
    {
      "inputs": [
        {
          "internalType": "address",
          "name": "owner",
          "type": "address"
        },
        {
          "internalType": "address",
          "name": "operator",
          "type": "address"
        }
      ],
      "name": "isApprovedForAll",
      "outputs": [
        {
          "internalType": "bool",
          "name": "",
          "type": "bool"
        }
      ],
      "stateMutability": "view",
      "type": "function",
      "constant": true
    },
    {
      "inputs": [],
      "name": "name",
      "outputs": [
        {
          "internalType": "string",
          "name": "",
          "type": "string"
        }
      ],
      "stateMutability": "view",
      "type": "function",
      "constant": true
    },
    {
      "inputs": [],
      "name": "owner",
      "outputs": [
        {
          "internalType": "address",
          "name": "",
          "type": "address"
        }
      ],
      "stateMutability": "view",
      "type": "function",
      "constant": true
    },
    {
      "inputs": [
        {
          "internalType": "uint256",
          "name": "tokenId",
          "type": "uint256"
        }
      ],
      "name": "ownerOf",
      "outputs": [
        {
          "internalType": "address",
          "name": "",
          "type": "address"
        }
      ],
      "stateMutability": "view",
      "type": "function",
      "constant": true
    },
    {
      "inputs": [],
      "name": "renounceOwnership",
      "outputs": [],
      "stateMutability": "nonpayable",
      "type": "function"
    },
    {
      "inputs": [
        {
          "internalType": "address",
          "name": "from",
          "type": "address"
        },
        {
          "internalType": "address",
          "name": "to",
          "type": "address"
        },
        {
          "internalType": "uint256",
          "name": "tokenId",
          "type": "uint256"
        }
      ],
      "name": "safeTransferFrom",
      "outputs": [],
      "stateMutability": "nonpayable",
      "type": "function"
    },
    {
      "inputs": [
        {
          "internalType": "address",
          "name": "from",
          "type": "address"
        },
        {
          "internalType": "address",
          "name": "to",
          "type": "address"
        },
        {
          "internalType": "uint256",
          "name": "tokenId",
          "type": "uint256"
        },
        {
          "internalType": "bytes",
          "name": "data",
          "type": "bytes"
        }
      ],
      "name": "safeTransferFrom",
      "outputs": [],
      "stateMutability": "nonpayable",
      "type": "function"
    },
    {
      "inputs": [
        {
          "internalType": "address",
          "name": "operator",
          "type": "address"
        },
        {
          "internalType": "bool",
          "name": "approved",
          "type": "bool"
        }
      ],
      "name": "setApprovalForAll",
      "outputs": [],
      "stateMutability": "nonpayable",
      "type": "function"
    },
    {
      "inputs": [],
      "name": "symbol",
      "outputs": [
        {
          "internalType": "string",
          "name": "",
          "type": "string"
        }
      ],
      "stateMutability": "view",
      "type": "function",
      "constant": true
    },
    {
      "inputs": [
        {
          "internalType": "uint256",
          "name": "index",
          "type": "uint256"
        }
      ],
      "name": "tokenByIndex",
      "outputs": [
        {
          "internalType": "uint256",
          "name": "",
          "type": "uint256"
        }
      ],
      "stateMutability": "view",
      "type": "function",
      "constant": true
    },
    {
      "inputs": [
        {
          "internalType": "address",
          "name": "owner",
          "type": "address"
        },
        {
          "internalType": "uint256",
          "name": "index",
          "type": "uint256"
        }
      ],
      "name": "tokenOfOwnerByIndex",
      "outputs": [
        {
          "internalType": "uint256",
          "name": "",
          "type": "uint256"
        }
      ],
      "stateMutability": "view",
      "type": "function",
      "constant": true
    },
    {
      "inputs": [],
      "name": "totalSupply",
      "outputs": [
        {
          "internalType": "uint256",
          "name": "",
          "type": "uint256"
        }
      ],
      "stateMutability": "view",
      "type": "function",
      "constant": true
    },
    {
      "inputs": [
        {
          "internalType": "address",
          "name": "from",
          "type": "address"
        },
        {
          "internalType": "address",
          "name": "to",
          "type": "address"
        },
        {
          "internalType": "uint256",
          "name": "tokenId",
          "type": "uint256"
        }
      ],
      "name": "transferFrom",
      "outputs": [],
      "stateMutability": "nonpayable",
      "type": "function"
    },
    {
      "inputs": [
        {
          "internalType": "address",
          "name": "newOwner",
          "type": "address"
        }
      ],
      "name": "transferOwnership",
      "outputs": [],
      "stateMutability": "nonpayable",
      "type": "function"
    },
    {
      "inputs": [
        {
          "internalType": "address",
          "name": "_newUser",
          "type": "address"
        }
      ],
      "name": "addWhiteList",
      "outputs": [],
      "stateMutability": "nonpayable",
      "type": "function"
    },
    {
      "inputs": [
        {
          "internalType": "address",
          "name": "_newUser",
          "type": "address"
        }
      ],
      "name": "removeWhiteList",
      "outputs": [],
      "stateMutability": "nonpayable",
      "type": "function"
    },
    {
      "inputs": [],
      "name": "check",
      "outputs": [
        {
          "internalType": "string",
          "name": "",
          "type": "string"
        }
      ],
      "stateMutability": "view",
      "type": "function",
      "constant": true
    },
    {
      "inputs": [
        {
          "internalType": "address",
          "name": "to",
          "type": "address"
        },
        {
          "internalType": "string",
          "name": "uri",
          "type": "string"
        }
      ],
      "name": "safeMint",
      "outputs": [],
      "stateMutability": "nonpayable",
      "type": "function"
    },
    {
      "inputs": [
        {
          "internalType": "uint256",
          "name": "tokenId",
          "type": "uint256"
        }
      ],
      "name": "tokenURI",
      "outputs": [
        {
          "internalType": "string",
          "name": "",
          "type": "string"
        }
      ],
      "stateMutability": "view",
      "type": "function",
      "constant": true
    },
    {
      "inputs": [
        {
          "internalType": "bytes4",
          "name": "interfaceId",
          "type": "bytes4"
        }
      ],
      "name": "supportsInterface",
      "outputs": [
        {
          "internalType": "bool",
          "name": "",
          "type": "bool"
        }
      ],
      "stateMutability": "view",
      "type": "function",
      "constant": true
    }
  ],
  "bytecode": "0x6080604052612710600f553480156200001757600080fd5b506040518060400160405280600881526020017f506f6c79566f74650000000000000000000000000000000000000000000000008152506040518060400160405280600381526020017f5056540000000000000000000000000000000000000000000000000000000000815250816000908162000095919062000445565b508060019081620000a7919062000445565b505050620000ca620000be620000e760201b60201c565b620000ef60201b60201c565b620000e1600e620001b560201b62000f601760201c565b6200052c565b600033905090565b6000600b60009054906101000a900473ffffffffffffffffffffffffffffffffffffffff16905081600b60006101000a81548173ffffffffffffffffffffffffffffffffffffffff021916908373ffffffffffffffffffffffffffffffffffffffff1602179055508173ffffffffffffffffffffffffffffffffffffffff168173ffffffffffffffffffffffffffffffffffffffff167f8be0079c531659141344cd1fd0a4f28419497f9722a3daafe3b4186f6b6457e060405160405180910390a35050565b6001816000016000828254019250508190555050565b600081519050919050565b7f4e487b7100000000000000000000000000000000000000000000000000000000600052604160045260246000fd5b7f4e487b7100000000000000000000000000000000000000000000000000000000600052602260045260246000fd5b600060028204905060018216806200024d57607f821691505b60208210810362000263576200026262000205565b5b50919050565b60008190508160005260206000209050919050565b60006020601f8301049050919050565b600082821b905092915050565b600060088302620002cd7fffffffffffffffffffffffffffffffffffffffffffffffffffffffffffffffff826200028e565b620002d986836200028e565b95508019841693508086168417925050509392505050565b6000819050919050565b6000819050919050565b600062000326620003206200031a84620002f1565b620002fb565b620002f1565b9050919050565b6000819050919050565b620003428362000305565b6200035a62000351826200032d565b8484546200029b565b825550505050565b600090565b6200037162000362565b6200037e81848462000337565b505050565b5b81811015620003a6576200039a60008262000367565b60018101905062000384565b5050565b601f821115620003f557620003bf8162000269565b620003ca846200027e565b81016020851015620003da578190505b620003f2620003e9856200027e565b83018262000383565b50505b505050565b600082821c905092915050565b60006200041a60001984600802620003fa565b1980831691505092915050565b600062000435838362000407565b9150826002028217905092915050565b6200045082620001cb565b67ffffffffffffffff8111156200046c576200046b620001d6565b5b62000478825462000234565b62000485828285620003aa565b600060209050601f831160018114620004bd5760008415620004a8578287015190505b620004b4858262000427565b86555062000524565b601f198416620004cd8662000269565b60005b82811015620004f757848901518255600182019150602085019450602081019050620004d0565b8683101562000517578489015162000513601f89168262000407565b8355505b6001600288020188555050505b505050505050565b613e1b806200053c6000396000f3fe608060405234801561001057600080fd5b506004361061014d5760003560e01c806370a08231116100c3578063b88d4fde1161007c578063b88d4fde1461039e578063c87b56dd146103ba578063d204c45e146103ea578063e7cd4a0414610406578063e985e9c514610422578063f2fde38b146104525761014d565b806370a08231146102ee578063715018a61461031e5780638da5cb5b14610328578063919840ad1461034657806395d89b4114610364578063a22cb465146103825761014d565b80632042e5c2116101155780632042e5c21461020a57806323b872dd146102265780632f745c591461024257806342842e0e146102725780634f6ccce71461028e5780636352211e146102be5761014d565b806301ffc9a71461015257806306fdde0314610182578063081812fc146101a0578063095ea7b3146101d057806318160ddd146101ec575b600080fd5b61016c600480360381019061016791906127db565b61046e565b6040516101799190612823565b60405180910390f35b61018a610480565b60405161019791906128ce565b60405180910390f35b6101ba60048036038101906101b59190612926565b610512565b6040516101c79190612994565b60405180910390f35b6101ea60048036038101906101e591906129db565b610558565b005b6101f461066f565b6040516102019190612a2a565b60405180910390f35b610224600480360381019061021f9190612a45565b61067c565b005b610240600480360381019061023b9190612a72565b6106df565b005b61025c600480360381019061025791906129db565b61073f565b6040516102699190612a2a565b60405180910390f35b61028c60048036038101906102879190612a72565b6107e4565b005b6102a860048036038101906102a39190612926565b610804565b6040516102b59190612a2a565b60405180910390f35b6102d860048036038101906102d39190612926565b610875565b6040516102e59190612994565b60405180910390f35b61030860048036038101906103039190612a45565b6108fb565b6040516103159190612a2a565b60405180910390f35b6103266109b2565b005b6103306109c6565b60405161033d9190612994565b60405180910390f35b61034e6109f0565b60405161035b91906128ce565b60405180910390f35b61036c610ac3565b60405161037991906128ce565b60405180910390f35b61039c60048036038101906103979190612af1565b610b55565b005b6103b860048036038101906103b39190612c66565b610b6b565b005b6103d460048036038101906103cf9190612926565b610bcd565b6040516103e191906128ce565b60405180910390f35b61040460048036038101906103ff9190612d8a565b610bdf565b005b610420600480360381019061041b9190612a45565b610de6565b005b61043c60048036038101906104379190612de6565b610e49565b6040516104499190612823565b60405180910390f35b61046c60048036038101906104679190612a45565b610edd565b005b600061047982610f76565b9050919050565b60606000805461048f90612e55565b80601f01602080910402602001604051908101604052809291908181526020018280546104bb90612e55565b80156105085780601f106104dd57610100808354040283529160200191610508565b820191906000526020600020905b8154815290600101906020018083116104eb57829003601f168201915b5050505050905090565b600061051d82610ff0565b6004600083815260200190815260200160002060009054906101000a900473ffffffffffffffffffffffffffffffffffffffff169050919050565b600061056382610875565b90508073ffffffffffffffffffffffffffffffffffffffff168373ffffffffffffffffffffffffffffffffffffffff16036105d3576040517f08c379a00000000000000000000000000000000000000000000000000000000081526004016105ca90612ef8565b60405180910390fd5b8073ffffffffffffffffffffffffffffffffffffffff166105f261103b565b73ffffffffffffffffffffffffffffffffffffffff16148061062157506106208161061b61103b565b610e49565b5b610660576040517f08c379a000000000000000000000000000000000000000000000000000000000815260040161065790612f8a565b60405180910390fd5b61066a8383611043565b505050565b6000600880549050905090565b6106846110fc565b6000600c60008373ffffffffffffffffffffffffffffffffffffffff1673ffffffffffffffffffffffffffffffffffffffff16815260200190815260200160002060006101000a81548160ff02191690831515021790555050565b6106f06106ea61103b565b8261117a565b61072f576040517f08c379a00000000000000000000000000000000000000000000000000000000081526004016107269061301c565b60405180910390fd5b61073a83838361120f565b505050565b600061074a836108fb565b821061078b576040517f08c379a0000000000000000000000000000000000000000000000000000000008152600401610782906130ae565b60405180910390fd5b600660008473ffffffffffffffffffffffffffffffffffffffff1673ffffffffffffffffffffffffffffffffffffffff168152602001908152602001600020600083815260200190815260200160002054905092915050565b6107ff83838360405180602001604052806000815250610b6b565b505050565b600061080e61066f565b821061084f576040517f08c379a000000000000000000000000000000000000000000000000000000000815260040161084690613140565b60405180910390fd5b6008828154811061086357610862613160565b5b90600052602060002001549050919050565b60008061088183611508565b9050600073ffffffffffffffffffffffffffffffffffffffff168173ffffffffffffffffffffffffffffffffffffffff16036108f2576040517f08c379a00000000000000000000000000000000000000000000000000000000081526004016108e9906131db565b60405180910390fd5b80915050919050565b60008073ffffffffffffffffffffffffffffffffffffffff168273ffffffffffffffffffffffffffffffffffffffff160361096b576040517f08c379a00000000000000000000000000000000000000000000000000000000081526004016109629061326d565b60405180910390fd5b600360008373ffffffffffffffffffffffffffffffffffffffff1673ffffffffffffffffffffffffffffffffffffffff168152602001908152602001600020549050919050565b6109ba6110fc565b6109c46000611545565b565b6000600b60009054906101000a900473ffffffffffffffffffffffffffffffffffffffff16905090565b606060011515600c60003373ffffffffffffffffffffffffffffffffffffffff1673ffffffffffffffffffffffffffffffffffffffff16815260200190815260200160002060009054906101000a900460ff16151503610a87576040518060400160405280601481526020017f796f7520617265206f6e2077686974656c6973740000000000000000000000008152509050610ac0565b6040518060400160405280601781526020017f796f7520617265206e6f742077686974656c697374656400000000000000000081525090505b90565b606060018054610ad290612e55565b80601f0160208091040260200160405190810160405280929190818152602001828054610afe90612e55565b8015610b4b5780601f10610b2057610100808354040283529160200191610b4b565b820191906000526020600020905b815481529060010190602001808311610b2e57829003601f168201915b5050505050905090565b610b67610b6061103b565b838361160b565b5050565b610b7c610b7661103b565b8361117a565b610bbb576040517f08c379a0000000000000000000000000000000000000000000000000000000008152600401610bb29061301c565b60405180910390fd5b610bc784848484611777565b50505050565b6060610bd8826117d3565b9050919050565b60011515600c60003373ffffffffffffffffffffffffffffffffffffffff1673ffffffffffffffffffffffffffffffffffffffff16815260200190815260200160002060009054906101000a900460ff1615151480610cdd575060011515600d60009054906101000a900473ffffffffffffffffffffffffffffffffffffffff1673ffffffffffffffffffffffffffffffffffffffff1663aec2ccae336040518263ffffffff1660e01b8152600401610c989190612994565b602060405180830381865afa158015610cb5573d6000803e3d6000fd5b505050506040513d601f19601f82011682018060405250810190610cd991906132a2565b1515145b610d1c576040517f08c379a0000000000000000000000000000000000000000000000000000000008152600401610d139061331b565b60405180910390fd5b600f54610d29600e6118e5565b1115610d6a576040517f08c379a0000000000000000000000000000000000000000000000000000000008152600401610d6190613387565b60405180910390fd5b6000610d75336108fb565b14610db5576040517f08c379a0000000000000000000000000000000000000000000000000000000008152600401610dac906133f3565b60405180910390fd5b6000610dc1600e6118e5565b9050610dcd600e610f60565b610dd783826118f3565b610de18183611911565b505050565b610dee6110fc565b6001600c60008373ffffffffffffffffffffffffffffffffffffffff1673ffffffffffffffffffffffffffffffffffffffff16815260200190815260200160002060006101000a81548160ff02191690831515021790555050565b6000600560008473ffffffffffffffffffffffffffffffffffffffff1673ffffffffffffffffffffffffffffffffffffffff16815260200190815260200160002060008373ffffffffffffffffffffffffffffffffffffffff1673ffffffffffffffffffffffffffffffffffffffff16815260200190815260200160002060009054906101000a900460ff16905092915050565b610ee56110fc565b600073ffffffffffffffffffffffffffffffffffffffff168173ffffffffffffffffffffffffffffffffffffffff1603610f54576040517f08c379a0000000000000000000000000000000000000000000000000000000008152600401610f4b90613485565b60405180910390fd5b610f5d81611545565b50565b6001816000016000828254019250508190555050565b60007f780e9d63000000000000000000000000000000000000000000000000000000007bffffffffffffffffffffffffffffffffffffffffffffffffffffffff1916827bffffffffffffffffffffffffffffffffffffffffffffffffffffffff19161480610fe95750610fe88261197e565b5b9050919050565b610ff981611a60565b611038576040517f08c379a000000000000000000000000000000000000000000000000000000000815260040161102f906131db565b60405180910390fd5b50565b600033905090565b816004600083815260200190815260200160002060006101000a81548173ffffffffffffffffffffffffffffffffffffffff021916908373ffffffffffffffffffffffffffffffffffffffff160217905550808273ffffffffffffffffffffffffffffffffffffffff166110b683610875565b73ffffffffffffffffffffffffffffffffffffffff167f8c5be1e5ebec7d5bd14f71427d1e84f3dd0314c0f7b2291e5b200ac8c7c3b92560405160405180910390a45050565b61110461103b565b73ffffffffffffffffffffffffffffffffffffffff166111226109c6565b73ffffffffffffffffffffffffffffffffffffffff1614611178576040517f08c379a000000000000000000000000000000000000000000000000000000000815260040161116f906134f1565b60405180910390fd5b565b60008061118683610875565b90508073ffffffffffffffffffffffffffffffffffffffff168473ffffffffffffffffffffffffffffffffffffffff1614806111c857506111c78185610e49565b5b8061120657508373ffffffffffffffffffffffffffffffffffffffff166111ee84610512565b73ffffffffffffffffffffffffffffffffffffffff16145b91505092915050565b8273ffffffffffffffffffffffffffffffffffffffff1661122f82610875565b73ffffffffffffffffffffffffffffffffffffffff1614611285576040517f08c379a000000000000000000000000000000000000000000000000000000000815260040161127c90613583565b60405180910390fd5b600073ffffffffffffffffffffffffffffffffffffffff168273ffffffffffffffffffffffffffffffffffffffff16036112f4576040517f08c379a00000000000000000000000000000000000000000000000000000000081526004016112eb90613615565b60405180910390fd5b6113018383836001611aa1565b8273ffffffffffffffffffffffffffffffffffffffff1661132182610875565b73ffffffffffffffffffffffffffffffffffffffff1614611377576040517f08c379a000000000000000000000000000000000000000000000000000000000815260040161136e90613583565b60405180910390fd5b6004600082815260200190815260200160002060006101000a81549073ffffffffffffffffffffffffffffffffffffffff02191690556001600360008573ffffffffffffffffffffffffffffffffffffffff1673ffffffffffffffffffffffffffffffffffffffff168152602001908152602001600020600082825403925050819055506001600360008473ffffffffffffffffffffffffffffffffffffffff1673ffffffffffffffffffffffffffffffffffffffff16815260200190815260200160002060008282540192505081905550816002600083815260200190815260200160002060006101000a81548173ffffffffffffffffffffffffffffffffffffffff021916908373ffffffffffffffffffffffffffffffffffffffff160217905550808273ffffffffffffffffffffffffffffffffffffffff168473ffffffffffffffffffffffffffffffffffffffff167fddf252ad1be2c89b69c2b068fc378daa952ba7f163c4a11628f55a4df523b3ef60405160405180910390a46115038383836001611ab3565b505050565b60006002600083815260200190815260200160002060009054906101000a900473ffffffffffffffffffffffffffffffffffffffff169050919050565b6000600b60009054906101000a900473ffffffffffffffffffffffffffffffffffffffff16905081600b60006101000a81548173ffffffffffffffffffffffffffffffffffffffff021916908373ffffffffffffffffffffffffffffffffffffffff1602179055508173ffffffffffffffffffffffffffffffffffffffff168173ffffffffffffffffffffffffffffffffffffffff167f8be0079c531659141344cd1fd0a4f28419497f9722a3daafe3b4186f6b6457e060405160405180910390a35050565b8173ffffffffffffffffffffffffffffffffffffffff168373ffffffffffffffffffffffffffffffffffffffff1603611679576040517f08c379a000000000000000000000000000000000000000000000000000000000815260040161167090613681565b60405180910390fd5b80600560008573ffffffffffffffffffffffffffffffffffffffff1673ffffffffffffffffffffffffffffffffffffffff16815260200190815260200160002060008473ffffffffffffffffffffffffffffffffffffffff1673ffffffffffffffffffffffffffffffffffffffff16815260200190815260200160002060006101000a81548160ff0219169083151502179055508173ffffffffffffffffffffffffffffffffffffffff168373ffffffffffffffffffffffffffffffffffffffff167f17307eab39ab6107e8899845ad3d59bd9653f200f220920489ca2b5937696c318360405161176a9190612823565b60405180910390a3505050565b61178284848461120f565b61178e84848484611ab9565b6117cd576040517f08c379a00000000000000000000000000000000000000000000000000000000081526004016117c490613713565b60405180910390fd5b50505050565b60606117de82610ff0565b6000600a600084815260200190815260200160002080546117fe90612e55565b80601f016020809104026020016040519081016040528092919081815260200182805461182a90612e55565b80156118775780601f1061184c57610100808354040283529160200191611877565b820191906000526020600020905b81548152906001019060200180831161185a57829003601f168201915b505050505090506000611888611c40565b9050600081510361189d5781925050506118e0565b6000825111156118d25780826040516020016118ba92919061376f565b604051602081830303815290604052925050506118e0565b6118db84611c57565b925050505b919050565b600081600001549050919050565b61190d828260405180602001604052806000815250611cbf565b5050565b61191a82611a60565b611959576040517f08c379a000000000000000000000000000000000000000000000000000000000815260040161195090613805565b60405180910390fd5b80600a6000848152602001908152602001600020908161197991906139d1565b505050565b60007f80ac58cd000000000000000000000000000000000000000000000000000000007bffffffffffffffffffffffffffffffffffffffffffffffffffffffff1916827bffffffffffffffffffffffffffffffffffffffffffffffffffffffff19161480611a4957507f5b5e139f000000000000000000000000000000000000000000000000000000007bffffffffffffffffffffffffffffffffffffffffffffffffffffffff1916827bffffffffffffffffffffffffffffffffffffffffffffffffffffffff1916145b80611a595750611a5882611d1a565b5b9050919050565b60008073ffffffffffffffffffffffffffffffffffffffff16611a8283611508565b73ffffffffffffffffffffffffffffffffffffffff1614159050919050565b611aad84848484611d84565b50505050565b50505050565b6000611ada8473ffffffffffffffffffffffffffffffffffffffff16611ee2565b15611c33578373ffffffffffffffffffffffffffffffffffffffff1663150b7a02611b0361103b565b8786866040518563ffffffff1660e01b8152600401611b259493929190613af8565b6020604051808303816000875af1925050508015611b6157506040513d601f19601f82011682018060405250810190611b5e9190613b59565b60015b611be3573d8060008114611b91576040519150601f19603f3d011682016040523d82523d6000602084013e611b96565b606091505b506000815103611bdb576040517f08c379a0000000000000000000000000000000000000000000000000000000008152600401611bd290613713565b60405180910390fd5b805181602001fd5b63150b7a0260e01b7bffffffffffffffffffffffffffffffffffffffffffffffffffffffff1916817bffffffffffffffffffffffffffffffffffffffffffffffffffffffff191614915050611c38565b600190505b949350505050565b606060405180602001604052806000815250905090565b6060611c6282610ff0565b6000611c6c611c40565b90506000815111611c8c5760405180602001604052806000815250611cb7565b80611c9684611f05565b604051602001611ca792919061376f565b6040516020818303038152906040525b915050919050565b611cc98383611fd3565b611cd66000848484611ab9565b611d15576040517f08c379a0000000000000000000000000000000000000000000000000000000008152600401611d0c90613713565b60405180910390fd5b505050565b60007f01ffc9a7000000000000000000000000000000000000000000000000000000007bffffffffffffffffffffffffffffffffffffffffffffffffffffffff1916827bffffffffffffffffffffffffffffffffffffffffffffffffffffffff1916149050919050565b611d90848484846121f0565b6001811115611dd4576040517f08c379a0000000000000000000000000000000000000000000000000000000008152600401611dcb90613bf8565b60405180910390fd5b6000829050600073ffffffffffffffffffffffffffffffffffffffff168573ffffffffffffffffffffffffffffffffffffffff1603611e1b57611e1681612316565b611e5a565b8373ffffffffffffffffffffffffffffffffffffffff168573ffffffffffffffffffffffffffffffffffffffff1614611e5957611e58858261235f565b5b5b600073ffffffffffffffffffffffffffffffffffffffff168473ffffffffffffffffffffffffffffffffffffffff1603611e9c57611e97816124cc565b611edb565b8473ffffffffffffffffffffffffffffffffffffffff168473ffffffffffffffffffffffffffffffffffffffff1614611eda57611ed9848261259d565b5b5b5050505050565b6000808273ffffffffffffffffffffffffffffffffffffffff163b119050919050565b606060006001611f148461261c565b01905060008167ffffffffffffffff811115611f3357611f32612b3b565b5b6040519080825280601f01601f191660200182016040528015611f655781602001600182028036833780820191505090505b509050600082602001820190505b600115611fc8578080600190039150507f3031323334353637383961626364656600000000000000000000000000000000600a86061a8153600a8581611fbc57611fbb613c18565b5b04945060008503611f73575b819350505050919050565b600073ffffffffffffffffffffffffffffffffffffffff168273ffffffffffffffffffffffffffffffffffffffff1603612042576040517f08c379a000000000000000000000000000000000000000000000000000000000815260040161203990613c93565b60405180910390fd5b61204b81611a60565b1561208b576040517f08c379a000000000000000000000000000000000000000000000000000000000815260040161208290613cff565b60405180910390fd5b612099600083836001611aa1565b6120a281611a60565b156120e2576040517f08c379a00000000000000000000000000000000000000000000000000000000081526004016120d990613cff565b60405180910390fd5b6001600360008473ffffffffffffffffffffffffffffffffffffffff1673ffffffffffffffffffffffffffffffffffffffff16815260200190815260200160002060008282540192505081905550816002600083815260200190815260200160002060006101000a81548173ffffffffffffffffffffffffffffffffffffffff021916908373ffffffffffffffffffffffffffffffffffffffff160217905550808273ffffffffffffffffffffffffffffffffffffffff16600073ffffffffffffffffffffffffffffffffffffffff167fddf252ad1be2c89b69c2b068fc378daa952ba7f163c4a11628f55a4df523b3ef60405160405180910390a46121ec600083836001611ab3565b5050565b600181111561231057600073ffffffffffffffffffffffffffffffffffffffff168473ffffffffffffffffffffffffffffffffffffffff16146122845780600360008673ffffffffffffffffffffffffffffffffffffffff1673ffffffffffffffffffffffffffffffffffffffff168152602001908152602001600020600082825461227c9190613d4e565b925050819055505b600073ffffffffffffffffffffffffffffffffffffffff168373ffffffffffffffffffffffffffffffffffffffff161461230f5780600360008573ffffffffffffffffffffffffffffffffffffffff1673ffffffffffffffffffffffffffffffffffffffff16815260200190815260200160002060008282546123079190613d82565b925050819055505b5b50505050565b6008805490506009600083815260200190815260200160002081905550600881908060018154018082558091505060019003906000526020600020016000909190919091505550565b6000600161236c846108fb565b6123769190613d4e565b905060006007600084815260200190815260200160002054905081811461245b576000600660008673ffffffffffffffffffffffffffffffffffffffff1673ffffffffffffffffffffffffffffffffffffffff168152602001908152602001600020600084815260200190815260200160002054905080600660008773ffffffffffffffffffffffffffffffffffffffff1673ffffffffffffffffffffffffffffffffffffffff168152602001908152602001600020600084815260200190815260200160002081905550816007600083815260200190815260200160002081905550505b6007600084815260200190815260200160002060009055600660008573ffffffffffffffffffffffffffffffffffffffff1673ffffffffffffffffffffffffffffffffffffffff16815260200190815260200160002060008381526020019081526020016000206000905550505050565b600060016008805490506124e09190613d4e565b90506000600960008481526020019081526020016000205490506000600883815481106125105761250f613160565b5b90600052602060002001549050806008838154811061253257612531613160565b5b90600052602060002001819055508160096000838152602001908152602001600020819055506009600085815260200190815260200160002060009055600880548061258157612580613db6565b5b6001900381819060005260206000200160009055905550505050565b60006125a8836108fb565b905081600660008573ffffffffffffffffffffffffffffffffffffffff1673ffffffffffffffffffffffffffffffffffffffff168152602001908152602001600020600083815260200190815260200160002081905550806007600084815260200190815260200160002081905550505050565b600080600090507a184f03e93ff9f4daa797ed6e38ed64bf6a1f010000000000000000831061267a577a184f03e93ff9f4daa797ed6e38ed64bf6a1f01000000000000000083816126705761266f613c18565b5b0492506040810190505b6d04ee2d6d415b85acef810000000083106126b7576d04ee2d6d415b85acef810000000083816126ad576126ac613c18565b5b0492506020810190505b662386f26fc1000083106126e657662386f26fc1000083816126dc576126db613c18565b5b0492506010810190505b6305f5e100831061270f576305f5e100838161270557612704613c18565b5b0492506008810190505b612710831061273457612710838161272a57612729613c18565b5b0492506004810190505b60648310612757576064838161274d5761274c613c18565b5b0492506002810190505b600a8310612766576001810190505b80915050919050565b6000604051905090565b600080fd5b600080fd5b60007fffffffff0000000000000000000000000000000000000000000000000000000082169050919050565b6127b881612783565b81146127c357600080fd5b50565b6000813590506127d5816127af565b92915050565b6000602082840312156127f1576127f0612779565b5b60006127ff848285016127c6565b91505092915050565b60008115159050919050565b61281d81612808565b82525050565b60006020820190506128386000830184612814565b92915050565b600081519050919050565b600082825260208201905092915050565b60005b8381101561287857808201518184015260208101905061285d565b60008484015250505050565b6000601f19601f8301169050919050565b60006128a08261283e565b6128aa8185612849565b93506128ba81856020860161285a565b6128c381612884565b840191505092915050565b600060208201905081810360008301526128e88184612895565b905092915050565b6000819050919050565b612903816128f0565b811461290e57600080fd5b50565b600081359050612920816128fa565b92915050565b60006020828403121561293c5761293b612779565b5b600061294a84828501612911565b91505092915050565b600073ffffffffffffffffffffffffffffffffffffffff82169050919050565b600061297e82612953565b9050919050565b61298e81612973565b82525050565b60006020820190506129a96000830184612985565b92915050565b6129b881612973565b81146129c357600080fd5b50565b6000813590506129d5816129af565b92915050565b600080604083850312156129f2576129f1612779565b5b6000612a00858286016129c6565b9250506020612a1185828601612911565b9150509250929050565b612a24816128f0565b82525050565b6000602082019050612a3f6000830184612a1b565b92915050565b600060208284031215612a5b57612a5a612779565b5b6000612a69848285016129c6565b91505092915050565b600080600060608486031215612a8b57612a8a612779565b5b6000612a99868287016129c6565b9350506020612aaa868287016129c6565b9250506040612abb86828701612911565b9150509250925092565b612ace81612808565b8114612ad957600080fd5b50565b600081359050612aeb81612ac5565b92915050565b60008060408385031215612b0857612b07612779565b5b6000612b16858286016129c6565b9250506020612b2785828601612adc565b9150509250929050565b600080fd5b600080fd5b7f4e487b7100000000000000000000000000000000000000000000000000000000600052604160045260246000fd5b612b7382612884565b810181811067ffffffffffffffff82111715612b9257612b91612b3b565b5b80604052505050565b6000612ba561276f565b9050612bb18282612b6a565b919050565b600067ffffffffffffffff821115612bd157612bd0612b3b565b5b612bda82612884565b9050602081019050919050565b82818337600083830152505050565b6000612c09612c0484612bb6565b612b9b565b905082815260208101848484011115612c2557612c24612b36565b5b612c30848285612be7565b509392505050565b600082601f830112612c4d57612c4c612b31565b5b8135612c5d848260208601612bf6565b91505092915050565b60008060008060808587031215612c8057612c7f612779565b5b6000612c8e878288016129c6565b9450506020612c9f878288016129c6565b9350506040612cb087828801612911565b925050606085013567ffffffffffffffff811115612cd157612cd061277e565b5b612cdd87828801612c38565b91505092959194509250565b600067ffffffffffffffff821115612d0457612d03612b3b565b5b612d0d82612884565b9050602081019050919050565b6000612d2d612d2884612ce9565b612b9b565b905082815260208101848484011115612d4957612d48612b36565b5b612d54848285612be7565b509392505050565b600082601f830112612d7157612d70612b31565b5b8135612d81848260208601612d1a565b91505092915050565b60008060408385031215612da157612da0612779565b5b6000612daf858286016129c6565b925050602083013567ffffffffffffffff811115612dd057612dcf61277e565b5b612ddc85828601612d5c565b9150509250929050565b60008060408385031215612dfd57612dfc612779565b5b6000612e0b858286016129c6565b9250506020612e1c858286016129c6565b9150509250929050565b7f4e487b7100000000000000000000000000000000000000000000000000000000600052602260045260246000fd5b60006002820490506001821680612e6d57607f821691505b602082108103612e8057612e7f612e26565b5b50919050565b7f4552433732313a20617070726f76616c20746f2063757272656e74206f776e6560008201527f7200000000000000000000000000000000000000000000000000000000000000602082015250565b6000612ee2602183612849565b9150612eed82612e86565b604082019050919050565b60006020820190508181036000830152612f1181612ed5565b9050919050565b7f4552433732313a20617070726f76652063616c6c6572206973206e6f7420746f60008201527f6b656e206f776e6572206f7220617070726f76656420666f7220616c6c000000602082015250565b6000612f74603d83612849565b9150612f7f82612f18565b604082019050919050565b60006020820190508181036000830152612fa381612f67565b9050919050565b7f4552433732313a2063616c6c6572206973206e6f7420746f6b656e206f776e6560008201527f72206f7220617070726f76656400000000000000000000000000000000000000602082015250565b6000613006602d83612849565b915061301182612faa565b604082019050919050565b6000602082019050818103600083015261303581612ff9565b9050919050565b7f455243373231456e756d657261626c653a206f776e657220696e646578206f7560008201527f74206f6620626f756e6473000000000000000000000000000000000000000000602082015250565b6000613098602b83612849565b91506130a38261303c565b604082019050919050565b600060208201905081810360008301526130c78161308b565b9050919050565b7f455243373231456e756d657261626c653a20676c6f62616c20696e646578206f60008201527f7574206f6620626f756e64730000000000000000000000000000000000000000602082015250565b600061312a602c83612849565b9150613135826130ce565b604082019050919050565b600060208201905081810360008301526131598161311d565b9050919050565b7f4e487b7100000000000000000000000000000000000000000000000000000000600052603260045260246000fd5b7f4552433732313a20696e76616c696420746f6b656e2049440000000000000000600082015250565b60006131c5601883612849565b91506131d08261318f565b602082019050919050565b600060208201905081810360008301526131f4816131b8565b9050919050565b7f4552433732313a2061646472657373207a65726f206973206e6f74206120766160008201527f6c6964206f776e65720000000000000000000000000000000000000000000000602082015250565b6000613257602983612849565b9150613262826131fb565b604082019050919050565b600060208201905081810360008301526132868161324a565b9050919050565b60008151905061329c81612ac5565b92915050565b6000602082840312156132b8576132b7612779565b5b60006132c68482850161328d565b91505092915050565b7f55736572206e6f7420617574686f72697a656420746f206d696e740000000000600082015250565b6000613305601b83612849565b9150613310826132cf565b602082019050919050565b60006020820190508181036000830152613334816132f8565b9050919050565b7f49276d20736f7272792077652072656163686564207468652063617000000000600082015250565b6000613371601c83612849565b915061337c8261333b565b602082019050919050565b600060208201905081810360008301526133a081613364565b9050919050565b7f4d6178206d696e74207065722077616c6c657420726561636865640000000000600082015250565b60006133dd601b83612849565b91506133e8826133a7565b602082019050919050565b6000602082019050818103600083015261340c816133d0565b9050919050565b7f4f776e61626c653a206e6577206f776e657220697320746865207a65726f206160008201527f6464726573730000000000000000000000000000000000000000000000000000602082015250565b600061346f602683612849565b915061347a82613413565b604082019050919050565b6000602082019050818103600083015261349e81613462565b9050919050565b7f4f776e61626c653a2063616c6c6572206973206e6f7420746865206f776e6572600082015250565b60006134db602083612849565b91506134e6826134a5565b602082019050919050565b6000602082019050818103600083015261350a816134ce565b9050919050565b7f4552433732313a207472616e736665722066726f6d20696e636f72726563742060008201527f6f776e6572000000000000000000000000000000000000000000000000000000602082015250565b600061356d602583612849565b915061357882613511565b604082019050919050565b6000602082019050818103600083015261359c81613560565b9050919050565b7f4552433732313a207472616e7366657220746f20746865207a65726f2061646460008201527f7265737300000000000000000000000000000000000000000000000000000000602082015250565b60006135ff602483612849565b915061360a826135a3565b604082019050919050565b6000602082019050818103600083015261362e816135f2565b9050919050565b7f4552433732313a20617070726f766520746f2063616c6c657200000000000000600082015250565b600061366b601983612849565b915061367682613635565b602082019050919050565b6000602082019050818103600083015261369a8161365e565b9050919050565b7f4552433732313a207472616e7366657220746f206e6f6e20455243373231526560008201527f63656976657220696d706c656d656e7465720000000000000000000000000000602082015250565b60006136fd603283612849565b9150613708826136a1565b604082019050919050565b6000602082019050818103600083015261372c816136f0565b9050919050565b600081905092915050565b60006137498261283e565b6137538185613733565b935061376381856020860161285a565b80840191505092915050565b600061377b828561373e565b9150613787828461373e565b91508190509392505050565b7f45524337323155524953746f726167653a2055524920736574206f66206e6f6e60008201527f6578697374656e7420746f6b656e000000000000000000000000000000000000602082015250565b60006137ef602e83612849565b91506137fa82613793565b604082019050919050565b6000602082019050818103600083015261381e816137e2565b9050919050565b60008190508160005260206000209050919050565b60006020601f8301049050919050565b600082821b905092915050565b6000600883026138877fffffffffffffffffffffffffffffffffffffffffffffffffffffffffffffffff8261384a565b613891868361384a565b95508019841693508086168417925050509392505050565b6000819050919050565b60006138ce6138c96138c4846128f0565b6138a9565b6128f0565b9050919050565b6000819050919050565b6138e8836138b3565b6138fc6138f4826138d5565b848454613857565b825550505050565b600090565b613911613904565b61391c8184846138df565b505050565b5b8181101561394057613935600082613909565b600181019050613922565b5050565b601f8211156139855761395681613825565b61395f8461383a565b8101602085101561396e578190505b61398261397a8561383a565b830182613921565b50505b505050565b600082821c905092915050565b60006139a86000198460080261398a565b1980831691505092915050565b60006139c18383613997565b9150826002028217905092915050565b6139da8261283e565b67ffffffffffffffff8111156139f3576139f2612b3b565b5b6139fd8254612e55565b613a08828285613944565b600060209050601f831160018114613a3b5760008415613a29578287015190505b613a3385826139b5565b865550613a9b565b601f198416613a4986613825565b60005b82811015613a7157848901518255600182019150602085019450602081019050613a4c565b86831015613a8e5784890151613a8a601f891682613997565b8355505b6001600288020188555050505b505050505050565b600081519050919050565b600082825260208201905092915050565b6000613aca82613aa3565b613ad48185613aae565b9350613ae481856020860161285a565b613aed81612884565b840191505092915050565b6000608082019050613b0d6000830187612985565b613b1a6020830186612985565b613b276040830185612a1b565b8181036060830152613b398184613abf565b905095945050505050565b600081519050613b53816127af565b92915050565b600060208284031215613b6f57613b6e612779565b5b6000613b7d84828501613b44565b91505092915050565b7f455243373231456e756d657261626c653a20636f6e736563757469766520747260008201527f616e7366657273206e6f7420737570706f727465640000000000000000000000602082015250565b6000613be2603583612849565b9150613bed82613b86565b604082019050919050565b60006020820190508181036000830152613c1181613bd5565b9050919050565b7f4e487b7100000000000000000000000000000000000000000000000000000000600052601260045260246000fd5b7f4552433732313a206d696e7420746f20746865207a65726f2061646472657373600082015250565b6000613c7d602083612849565b9150613c8882613c47565b602082019050919050565b60006020820190508181036000830152613cac81613c70565b9050919050565b7f4552433732313a20746f6b656e20616c7265616479206d696e74656400000000600082015250565b6000613ce9601c83612849565b9150613cf482613cb3565b602082019050919050565b60006020820190508181036000830152613d1881613cdc565b9050919050565b7f4e487b7100000000000000000000000000000000000000000000000000000000600052601160045260246000fd5b6000613d59826128f0565b9150613d64836128f0565b9250828203905081811115613d7c57613d7b613d1f565b5b92915050565b6000613d8d826128f0565b9150613d98836128f0565b9250828201905080821115613db057613daf613d1f565b5b92915050565b7f4e487b7100000000000000000000000000000000000000000000000000000000600052603160045260246000fdfea264697066735822122038346b5c6cf520b739adb848ad2b951d5526711baf002e2af2da33cdb6851f4a64736f6c63430008120033",
  "immutableReferences": {},
  "source": "// SPDX-License-Identifier: MIT\r\npragma solidity ^0.8.9;\r\n\r\nimport \"@openzeppelin/contracts/token/ERC721/ERC721.sol\";\r\nimport \"@openzeppelin/contracts/token/ERC721/extensions/ERC721Enumerable.sol\";\r\nimport \"@openzeppelin/contracts/token/ERC721/extensions/ERC721URIStorage.sol\";\r\nimport \"@openzeppelin/contracts/access/Ownable.sol\";\r\nimport \"@openzeppelin/contracts/utils/Counters.sol\";\r\n\r\nimport \"./Election.sol\";\r\n\r\ncontract PolyVote is ERC721, ERC721Enumerable, ERC721URIStorage, Ownable {\r\n    using Counters for Counters.Counter;\r\n\r\n    mapping(address => bool) internal isWhiteListed;\r\n\r\n    Election private _election;\r\n\r\n    constructor() ERC721(\"PolyVote\", \"PVT\") {\r\n        _tokenIdCounter.increment();\r\n    }\r\n\r\n    // add remove whitelist\r\n    function addWhiteList(address _newUser) external onlyOwner {\r\n        isWhiteListed[_newUser] = true;\r\n    }\r\n\r\n    function removeWhiteList(address _newUser) external onlyOwner {\r\n        isWhiteListed[_newUser] = false;\r\n    }\r\n\r\n    //check status\r\n    function check() external view returns (string memory) {\r\n        if (isWhiteListed[msg.sender] == true) {\r\n            return \"you are on whitelist\";\r\n        } else {\r\n            return \"you are not whitelisted\";\r\n        }\r\n    }\r\n\r\n    Counters.Counter private _tokenIdCounter;\r\n    uint256 maxSupply = 10000;\r\n\r\n    function safeMint(address to, string memory uri) public {\r\n        require(\r\n            isWhiteListed[msg.sender] == true ||\r\n                _election.voted(msg.sender) == true,\r\n            \"User not authorized to mint\"\r\n        );\r\n        require(\r\n            _tokenIdCounter.current() <= maxSupply,\r\n            \"I'm sorry we reached the cap\"\r\n        );\r\n        require(balanceOf(msg.sender) == 0, \"Max mint per wallet reached\");\r\n        uint256 tokenId = _tokenIdCounter.current();\r\n        _tokenIdCounter.increment();\r\n        _safeMint(to, tokenId);\r\n        _setTokenURI(tokenId, uri);\r\n    }\r\n\r\n    // The following functions are overrides required by Solidity.\r\n\r\n    function _beforeTokenTransfer(\r\n        address from,\r\n        address to,\r\n        uint256 tokenId,\r\n        uint256 batchSize\r\n    ) internal override(ERC721, ERC721Enumerable) {\r\n        super._beforeTokenTransfer(from, to, tokenId, batchSize);\r\n    }\r\n\r\n    function _burn(\r\n        uint256 tokenId\r\n    ) internal override(ERC721, ERC721URIStorage) {\r\n        super._burn(tokenId);\r\n    }\r\n\r\n    function tokenURI(\r\n        uint256 tokenId\r\n    ) public view override(ERC721, ERC721URIStorage) returns (string memory) {\r\n        return super.tokenURI(tokenId);\r\n    }\r\n\r\n    function supportsInterface(\r\n        bytes4 interfaceId\r\n    ) public view override(ERC721, ERC721Enumerable) returns (bool) {\r\n        return super.supportsInterface(interfaceId);\r\n    }\r\n}\r\n",
  "sourcePath": "D:\\Project\\polygon-voting\\contracts\\PolyVote.sol",
  "compiler": {
    "name": "solc",
    "version": "0.8.18+commit.87f61d96.Emscripten.clang"
  },
  "schemaVersion": "3.4.10",
  "updatedAt": "2023-02-16T10:48:37.862Z",
  "networkType": "ethereum",
  "devdoc": {
    "events": {
      "Approval(address,address,uint256)": {
        "details": "Emitted when `owner` enables `approved` to manage the `tokenId` token."
      },
      "ApprovalForAll(address,address,bool)": {
        "details": "Emitted when `owner` enables or disables (`approved`) `operator` to manage all of its assets."
      },
      "Transfer(address,address,uint256)": {
        "details": "Emitted when `tokenId` token is transferred from `from` to `to`."
      }
    },
    "kind": "dev",
    "methods": {
      "approve(address,uint256)": {
        "details": "See {IERC721-approve}."
      },
      "balanceOf(address)": {
        "details": "See {IERC721-balanceOf}."
      },
      "getApproved(uint256)": {
        "details": "See {IERC721-getApproved}."
      },
      "isApprovedForAll(address,address)": {
        "details": "See {IERC721-isApprovedForAll}."
      },
      "name()": {
        "details": "See {IERC721Metadata-name}."
      },
      "owner()": {
        "details": "Returns the address of the current owner."
      },
      "ownerOf(uint256)": {
        "details": "See {IERC721-ownerOf}."
      },
      "renounceOwnership()": {
        "details": "Leaves the contract without owner. It will not be possible to call `onlyOwner` functions anymore. Can only be called by the current owner. NOTE: Renouncing ownership will leave the contract without an owner, thereby removing any functionality that is only available to the owner."
      },
      "safeTransferFrom(address,address,uint256)": {
        "details": "See {IERC721-safeTransferFrom}."
      },
      "safeTransferFrom(address,address,uint256,bytes)": {
        "details": "See {IERC721-safeTransferFrom}."
      },
      "setApprovalForAll(address,bool)": {
        "details": "See {IERC721-setApprovalForAll}."
      },
      "symbol()": {
        "details": "See {IERC721Metadata-symbol}."
      },
      "tokenByIndex(uint256)": {
        "details": "See {IERC721Enumerable-tokenByIndex}."
      },
      "tokenOfOwnerByIndex(address,uint256)": {
        "details": "See {IERC721Enumerable-tokenOfOwnerByIndex}."
      },
      "totalSupply()": {
        "details": "See {IERC721Enumerable-totalSupply}."
      },
      "transferFrom(address,address,uint256)": {
        "details": "See {IERC721-transferFrom}."
      },
      "transferOwnership(address)": {
        "details": "Transfers ownership of the contract to a new account (`newOwner`). Can only be called by the current owner."
      }
    },
    "version": 1
  },
  "userdoc": {
    "kind": "user",
    "methods": {},
    "version": 1
  }
}